{
  "_format": "hh-sol-artifact-1",
  "contractName": "ERC721Uptick",
  "sourceName": "contracts/ERC721Uptick.sol",
  "abi": [
    {
      "inputs": [
        {
          "internalType": "string",
          "name": "name",
          "type": "string"
        },
        {
          "internalType": "string",
          "name": "symbol",
          "type": "string"
        },
        {
          "internalType": "string",
          "name": "baseTokenURI",
          "type": "string"
        },
        {
          "internalType": "string",
          "name": "data",
          "type": "string"
        },
        {
          "internalType": "string",
          "name": "description",
          "type": "string"
        },
        {
          "internalType": "bool",
          "name": "mint_restricted",
          "type": "bool"
        },
        {
          "internalType": "string",
          "name": "schema",
          "type": "string"
        },
        {
          "internalType": "bool",
          "name": "update_restricted",
          "type": "bool"
        },
        {
          "internalType": "string",
          "name": "uri_hash",
          "type": "string"
        }
      ],
      "stateMutability": "nonpayable",
      "type": "constructor"
    },
    {
      "anonymous": false,
      "inputs": [
        {
          "indexed": true,
          "internalType": "address",
          "name": "owner",
          "type": "address"
        },
        {
          "indexed": true,
          "internalType": "address",
          "name": "approved",
          "type": "address"
        },
        {
          "indexed": true,
          "internalType": "uint256",
          "name": "tokenId",
          "type": "uint256"
        }
      ],
      "name": "Approval",
      "type": "event"
    },
    {
      "anonymous": false,
      "inputs": [
        {
          "indexed": true,
          "internalType": "address",
          "name": "owner",
          "type": "address"
        },
        {
          "indexed": true,
          "internalType": "address",
          "name": "operator",
          "type": "address"
        },
        {
          "indexed": false,
          "internalType": "bool",
          "name": "approved",
          "type": "bool"
        }
      ],
      "name": "ApprovalForAll",
      "type": "event"
    },
    {
      "anonymous": false,
      "inputs": [
        {
          "indexed": false,
          "internalType": "address",
          "name": "account",
          "type": "address"
        }
      ],
      "name": "Paused",
      "type": "event"
    },
    {
      "anonymous": false,
      "inputs": [
        {
          "indexed": true,
          "internalType": "bytes32",
          "name": "role",
          "type": "bytes32"
        },
        {
          "indexed": true,
          "internalType": "bytes32",
          "name": "previousAdminRole",
          "type": "bytes32"
        },
        {
          "indexed": true,
          "internalType": "bytes32",
          "name": "newAdminRole",
          "type": "bytes32"
        }
      ],
      "name": "RoleAdminChanged",
      "type": "event"
    },
    {
      "anonymous": false,
      "inputs": [
        {
          "indexed": true,
          "internalType": "bytes32",
          "name": "role",
          "type": "bytes32"
        },
        {
          "indexed": true,
          "internalType": "address",
          "name": "account",
          "type": "address"
        },
        {
          "indexed": true,
          "internalType": "address",
          "name": "sender",
          "type": "address"
        }
      ],
      "name": "RoleGranted",
      "type": "event"
    },
    {
      "anonymous": false,
      "inputs": [
        {
          "indexed": true,
          "internalType": "bytes32",
          "name": "role",
          "type": "bytes32"
        },
        {
          "indexed": true,
          "internalType": "address",
          "name": "account",
          "type": "address"
        },
        {
          "indexed": true,
          "internalType": "address",
          "name": "sender",
          "type": "address"
        }
      ],
      "name": "RoleRevoked",
      "type": "event"
    },
    {
      "anonymous": false,
      "inputs": [
        {
          "indexed": true,
          "internalType": "address",
          "name": "from",
          "type": "address"
        },
        {
          "indexed": true,
          "internalType": "address",
          "name": "to",
          "type": "address"
        },
        {
          "indexed": true,
          "internalType": "uint256",
          "name": "tokenId",
          "type": "uint256"
        }
      ],
      "name": "Transfer",
      "type": "event"
    },
    {
      "anonymous": false,
      "inputs": [
        {
          "indexed": false,
          "internalType": "address",
          "name": "account",
          "type": "address"
        }
      ],
      "name": "Unpaused",
      "type": "event"
    },
    {
      "inputs": [],
      "name": "DEFAULT_ADMIN_ROLE",
      "outputs": [
        {
          "internalType": "bytes32",
          "name": "",
          "type": "bytes32"
        }
      ],
      "stateMutability": "view",
      "type": "function"
    },
    {
      "inputs": [],
      "name": "MINTER_ROLE",
      "outputs": [
        {
          "internalType": "bytes32",
          "name": "",
          "type": "bytes32"
        }
      ],
      "stateMutability": "view",
      "type": "function"
    },
    {
      "inputs": [],
      "name": "PAUSER_ROLE",
      "outputs": [
        {
          "internalType": "bytes32",
          "name": "",
          "type": "bytes32"
        }
      ],
      "stateMutability": "view",
      "type": "function"
    },
    {
      "inputs": [
        {
          "internalType": "address",
          "name": "to",
          "type": "address"
        },
        {
          "internalType": "uint256",
          "name": "tokenId",
          "type": "uint256"
        }
      ],
      "name": "approve",
      "outputs": [],
      "stateMutability": "nonpayable",
      "type": "function"
    },
    {
      "inputs": [
        {
          "internalType": "address",
          "name": "owner",
          "type": "address"
        }
      ],
      "name": "balanceOf",
      "outputs": [
        {
          "internalType": "uint256",
          "name": "",
          "type": "uint256"
        }
      ],
      "stateMutability": "view",
      "type": "function"
    },
    {
      "inputs": [
        {
          "internalType": "uint256",
          "name": "tokenId",
          "type": "uint256"
        }
      ],
      "name": "burn",
      "outputs": [],
      "stateMutability": "nonpayable",
      "type": "function"
    },
    {
      "inputs": [
        {
          "internalType": "uint256",
          "name": "id",
          "type": "uint256"
        }
      ],
      "name": "burnEnhance",
      "outputs": [],
      "stateMutability": "nonpayable",
      "type": "function"
    },
    {
      "inputs": [
        {
          "internalType": "uint256",
          "name": "tokenId",
          "type": "uint256"
        }
      ],
      "name": "getApproved",
      "outputs": [
        {
          "internalType": "address",
          "name": "",
          "type": "address"
        }
      ],
      "stateMutability": "view",
      "type": "function"
    },
    {
      "inputs": [],
      "name": "getClassEnhanceInfo",
      "outputs": [
        {
          "internalType": "string",
          "name": "data",
          "type": "string"
        },
        {
          "internalType": "string",
          "name": "description",
          "type": "string"
        },
        {
          "internalType": "bool",
          "name": "mint_restricted",
          "type": "bool"
        },
        {
          "internalType": "string",
          "name": "schema",
          "type": "string"
        },
        {
          "internalType": "bool",
          "name": "update_restricted",
          "type": "bool"
        },
        {
          "internalType": "string",
          "name": "uri",
          "type": "string"
        },
        {
          "internalType": "string",
          "name": "uri_hash",
          "type": "string"
        }
      ],
      "stateMutability": "view",
      "type": "function"
    },
    {
      "inputs": [
        {
          "internalType": "uint256",
          "name": "id",
          "type": "uint256"
        }
      ],
      "name": "getNFTEnhanceInfo",
      "outputs": [
        {
          "internalType": "string",
          "name": "name",
          "type": "string"
        },
        {
          "internalType": "string",
          "name": "uri",
          "type": "string"
        },
        {
          "internalType": "string",
          "name": "data",
          "type": "string"
        },
        {
          "internalType": "string",
          "name": "uriHash",
          "type": "string"
        }
      ],
      "stateMutability": "view",
      "type": "function"
    },
    {
      "inputs": [
        {
          "internalType": "bytes32",
          "name": "role",
          "type": "bytes32"
        }
      ],
      "name": "getRoleAdmin",
      "outputs": [
        {
          "internalType": "bytes32",
          "name": "",
          "type": "bytes32"
        }
      ],
      "stateMutability": "view",
      "type": "function"
    },
    {
      "inputs": [
        {
          "internalType": "bytes32",
          "name": "role",
          "type": "bytes32"
        },
        {
          "internalType": "uint256",
          "name": "index",
          "type": "uint256"
        }
      ],
      "name": "getRoleMember",
      "outputs": [
        {
          "internalType": "address",
          "name": "",
          "type": "address"
        }
      ],
      "stateMutability": "view",
      "type": "function"
    },
    {
      "inputs": [
        {
          "internalType": "bytes32",
          "name": "role",
          "type": "bytes32"
        }
      ],
      "name": "getRoleMemberCount",
      "outputs": [
        {
          "internalType": "uint256",
          "name": "",
          "type": "uint256"
        }
      ],
      "stateMutability": "view",
      "type": "function"
    },
    {
      "inputs": [
        {
          "internalType": "bytes32",
          "name": "role",
          "type": "bytes32"
        },
        {
          "internalType": "address",
          "name": "account",
          "type": "address"
        }
      ],
      "name": "grantRole",
      "outputs": [],
      "stateMutability": "nonpayable",
      "type": "function"
    },
    {
      "inputs": [
        {
          "internalType": "bytes32",
          "name": "role",
          "type": "bytes32"
        },
        {
          "internalType": "address",
          "name": "account",
          "type": "address"
        }
      ],
      "name": "hasRole",
      "outputs": [
        {
          "internalType": "bool",
          "name": "",
          "type": "bool"
        }
      ],
      "stateMutability": "view",
      "type": "function"
    },
    {
      "inputs": [
        {
          "internalType": "address",
          "name": "owner",
          "type": "address"
        },
        {
          "internalType": "address",
          "name": "operator",
          "type": "address"
        }
      ],
      "name": "isApprovedForAll",
      "outputs": [
        {
          "internalType": "bool",
          "name": "",
          "type": "bool"
        }
      ],
      "stateMutability": "view",
      "type": "function"
    },
    {
      "inputs": [
        {
          "internalType": "address",
          "name": "to",
          "type": "address"
        },
        {
          "internalType": "uint256",
          "name": "id",
          "type": "uint256"
        }
      ],
      "name": "mint",
      "outputs": [],
      "stateMutability": "nonpayable",
      "type": "function"
    },
    {
      "inputs": [
        {
          "internalType": "address",
          "name": "to",
          "type": "address"
        },
        {
          "internalType": "uint256[]",
          "name": "ids",
          "type": "uint256[]"
        }
      ],
      "name": "mintBatch",
      "outputs": [],
      "stateMutability": "nonpayable",
      "type": "function"
    },
    {
      "inputs": [
        {
          "internalType": "address",
          "name": "to",
          "type": "address"
        },
        {
          "internalType": "uint256",
          "name": "id",
          "type": "uint256"
        },
        {
          "internalType": "string",
          "name": "name",
          "type": "string"
        },
        {
          "internalType": "string",
          "name": "uri",
          "type": "string"
        },
        {
          "internalType": "string",
          "name": "data",
          "type": "string"
        },
        {
          "internalType": "string",
          "name": "uriHash",
          "type": "string"
        }
      ],
      "name": "mintEnhance",
      "outputs": [],
      "stateMutability": "nonpayable",
      "type": "function"
    },
    {
      "inputs": [
        {
          "internalType": "address",
          "name": "to",
          "type": "address"
        },
        {
          "internalType": "uint256[]",
          "name": "ids",
          "type": "uint256[]"
        },
        {
          "internalType": "string",
          "name": "name",
          "type": "string"
        },
        {
          "internalType": "string",
          "name": "uri",
          "type": "string"
        },
        {
          "internalType": "string",
          "name": "data",
          "type": "string"
        },
        {
          "internalType": "string",
          "name": "uriHash",
          "type": "string"
        }
      ],
      "name": "mintEnhanceBatch",
      "outputs": [],
      "stateMutability": "nonpayable",
      "type": "function"
    },
    {
      "inputs": [],
      "name": "name",
      "outputs": [
        {
          "internalType": "string",
          "name": "",
          "type": "string"
        }
      ],
      "stateMutability": "view",
      "type": "function"
    },
    {
      "inputs": [
        {
          "internalType": "uint256",
          "name": "tokenId",
          "type": "uint256"
        }
      ],
      "name": "ownerOf",
      "outputs": [
        {
          "internalType": "address",
          "name": "",
          "type": "address"
        }
      ],
      "stateMutability": "view",
      "type": "function"
    },
    {
      "inputs": [],
      "name": "pause",
      "outputs": [],
      "stateMutability": "nonpayable",
      "type": "function"
    },
    {
      "inputs": [],
      "name": "paused",
      "outputs": [
        {
          "internalType": "bool",
          "name": "",
          "type": "bool"
        }
      ],
      "stateMutability": "view",
      "type": "function"
    },
    {
      "inputs": [
        {
          "internalType": "bytes32",
          "name": "role",
          "type": "bytes32"
        },
        {
          "internalType": "address",
          "name": "account",
          "type": "address"
        }
      ],
      "name": "renounceRole",
      "outputs": [],
      "stateMutability": "nonpayable",
      "type": "function"
    },
    {
      "inputs": [
        {
          "internalType": "bytes32",
          "name": "role",
          "type": "bytes32"
        },
        {
          "internalType": "address",
          "name": "account",
          "type": "address"
        }
      ],
      "name": "revokeRole",
      "outputs": [],
      "stateMutability": "nonpayable",
      "type": "function"
    },
    {
      "inputs": [
        {
          "internalType": "address",
          "name": "from",
          "type": "address"
        },
        {
          "internalType": "address",
          "name": "to",
          "type": "address"
        },
        {
          "internalType": "uint256",
          "name": "tokenId",
          "type": "uint256"
        }
      ],
      "name": "safeTransferFrom",
      "outputs": [],
      "stateMutability": "nonpayable",
      "type": "function"
    },
    {
      "inputs": [
        {
          "internalType": "address",
          "name": "from",
          "type": "address"
        },
        {
          "internalType": "address",
          "name": "to",
          "type": "address"
        },
        {
          "internalType": "uint256",
          "name": "tokenId",
          "type": "uint256"
        },
        {
          "internalType": "bytes",
          "name": "_data",
          "type": "bytes"
        }
      ],
      "name": "safeTransferFrom",
      "outputs": [],
      "stateMutability": "nonpayable",
      "type": "function"
    },
    {
      "inputs": [
        {
          "internalType": "address",
          "name": "operator",
          "type": "address"
        },
        {
          "internalType": "bool",
          "name": "approved",
          "type": "bool"
        }
      ],
      "name": "setApprovalForAll",
      "outputs": [],
      "stateMutability": "nonpayable",
      "type": "function"
    },
    {
      "inputs": [
        {
          "internalType": "bytes4",
          "name": "interfaceId",
          "type": "bytes4"
        }
      ],
      "name": "supportsInterface",
      "outputs": [
        {
          "internalType": "bool",
          "name": "",
          "type": "bool"
        }
      ],
      "stateMutability": "view",
      "type": "function"
    },
    {
      "inputs": [],
      "name": "symbol",
      "outputs": [
        {
          "internalType": "string",
          "name": "",
          "type": "string"
        }
      ],
      "stateMutability": "view",
      "type": "function"
    },
    {
      "inputs": [
        {
          "internalType": "uint256",
          "name": "index",
          "type": "uint256"
        }
      ],
      "name": "tokenByIndex",
      "outputs": [
        {
          "internalType": "uint256",
          "name": "",
          "type": "uint256"
        }
      ],
      "stateMutability": "view",
      "type": "function"
    },
    {
      "inputs": [
        {
          "internalType": "address",
          "name": "owner",
          "type": "address"
        },
        {
          "internalType": "uint256",
          "name": "index",
          "type": "uint256"
        }
      ],
      "name": "tokenOfOwnerByIndex",
      "outputs": [
        {
          "internalType": "uint256",
          "name": "",
          "type": "uint256"
        }
      ],
      "stateMutability": "view",
      "type": "function"
    },
    {
      "inputs": [
        {
          "internalType": "uint256",
          "name": "tokenId",
          "type": "uint256"
        }
      ],
      "name": "tokenURI",
      "outputs": [
        {
          "internalType": "string",
          "name": "",
          "type": "string"
        }
      ],
      "stateMutability": "view",
      "type": "function"
    },
    {
      "inputs": [],
      "name": "totalSupply",
      "outputs": [
        {
          "internalType": "uint256",
          "name": "",
          "type": "uint256"
        }
      ],
      "stateMutability": "view",
      "type": "function"
    },
    {
      "inputs": [
        {
          "internalType": "address",
          "name": "from",
          "type": "address"
        },
        {
          "internalType": "address",
          "name": "to",
          "type": "address"
        },
        {
          "internalType": "uint256",
          "name": "tokenId",
          "type": "uint256"
        }
      ],
      "name": "transferFrom",
      "outputs": [],
      "stateMutability": "nonpayable",
      "type": "function"
    },
    {
      "inputs": [],
      "name": "unpause",
      "outputs": [],
      "stateMutability": "nonpayable",
      "type": "function"
    }
  ],
  "bytecode": "0x60806040523480156200001157600080fd5b5060405162005c4838038062005c488339818101604052810190620000379190620005eb565b8888816002908051906020019062000051929190620004b2565b5080600390805190602001906200006a929190620004b2565b5050506000600c60006101000a81548160ff02191690831515021790555086600d9080519060200190620000a0929190620004b2565b50620000c56000801b620000b96200021c60201b60201c565b6200022460201b60201c565b620001067f9f2df0fed2c77648de5860a4cc508cd0818c85b8b8a1ab4ceeef8d981c8956a6620000fa6200021c60201b60201c565b6200022460201b60201c565b620001477f65d7a28e3265b37a6474929f336521b332c1681b933f6cb9f3376673440d862a6200013b6200021c60201b60201c565b6200022460201b60201c565b85600f600001908051906020019062000162929190620004b2565b5084600f60010190805190602001906200017e929190620004b2565b5083600f60020160006101000a81548160ff02191690831515021790555082600f6003019080519060200190620001b7929190620004b2565b5081600f60040160006101000a81548160ff02191690831515021790555086600f6005019080519060200190620001f0929190620004b2565b5080600f60060190805190602001906200020c929190620004b2565b50505050505050505050620008ca565b600033905090565b6200023b82826200026c60201b62001f0d1760201c565b6200026781600160008581526020019081526020016000206200028260201b62001f1b1790919060201c565b505050565b6200027e8282620002ba60201b60201c565b5050565b6000620002b2836000018373ffffffffffffffffffffffffffffffffffffffff1660001b620003ab60201b60201c565b905092915050565b620002cc82826200042560201b60201c565b620003a757600160008084815260200190815260200160002060000160008373ffffffffffffffffffffffffffffffffffffffff1673ffffffffffffffffffffffffffffffffffffffff16815260200190815260200160002060006101000a81548160ff0219169083151502179055506200034c6200021c60201b60201c565b73ffffffffffffffffffffffffffffffffffffffff168173ffffffffffffffffffffffffffffffffffffffff16837f2f8788117e7eff1d82e926ec794901d17c78024a50270940304540a733656f0d60405160405180910390a45b5050565b6000620003bf83836200048f60201b60201c565b6200041a5782600001829080600181540180825580915050600190039060005260206000200160009091909190915055826000018054905083600101600084815260200190815260200160002081905550600190506200041f565b600090505b92915050565b600080600084815260200190815260200160002060000160008373ffffffffffffffffffffffffffffffffffffffff1673ffffffffffffffffffffffffffffffffffffffff16815260200190815260200160002060009054906101000a900460ff16905092915050565b600080836001016000848152602001908152602001600020541415905092915050565b828054620004c0906200081c565b90600052602060002090601f016020900481019282620004e4576000855562000530565b82601f10620004ff57805160ff191683800117855562000530565b8280016001018555821562000530579182015b828111156200052f57825182559160200191906001019062000512565b5b5090506200053f919062000543565b5090565b5b808211156200055e57600081600090555060010162000544565b5090565b6000620005796200057384620007a7565b62000773565b9050828152602081018484840111156200059257600080fd5b6200059f848285620007e6565b509392505050565b600081519050620005b881620008b0565b92915050565b600082601f830112620005d057600080fd5b8151620005e284826020860162000562565b91505092915050565b60008060008060008060008060006101208a8c0312156200060b57600080fd5b60008a015167ffffffffffffffff8111156200062657600080fd5b620006348c828d01620005be565b99505060208a015167ffffffffffffffff8111156200065257600080fd5b620006608c828d01620005be565b98505060408a015167ffffffffffffffff8111156200067e57600080fd5b6200068c8c828d01620005be565b97505060608a015167ffffffffffffffff811115620006aa57600080fd5b620006b88c828d01620005be565b96505060808a015167ffffffffffffffff811115620006d657600080fd5b620006e48c828d01620005be565b95505060a0620006f78c828d01620005a7565b94505060c08a015167ffffffffffffffff8111156200071557600080fd5b620007238c828d01620005be565b93505060e0620007368c828d01620005a7565b9250506101008a015167ffffffffffffffff8111156200075557600080fd5b620007638c828d01620005be565b9150509295985092959850929598565b6000604051905081810181811067ffffffffffffffff821117156200079d576200079c62000881565b5b8060405250919050565b600067ffffffffffffffff821115620007c557620007c462000881565b5b601f19601f8301169050602081019050919050565b60008115159050919050565b60005b8381101562000806578082015181840152602081019050620007e9565b8381111562000816576000848401525b50505050565b600060028204905060018216806200083557607f821691505b602082108114156200084c576200084b62000852565b5b50919050565b7f4e487b7100000000000000000000000000000000000000000000000000000000600052602260045260246000fd5b7f4e487b7100000000000000000000000000000000000000000000000000000000600052604160045260246000fd5b620008bb81620007da565b8114620008c757600080fd5b50565b61536e80620008da6000396000f3fe608060405234801561001057600080fd5b50600436106102275760003560e01c80634f6ccce711610130578063a217fddf116100b8578063ca15c8731161007c578063ca15c87314610679578063d5391393146106a9578063d547741f146106c7578063e63ab1e9146106e3578063e985e9c51461070157610227565b8063a217fddf146105d7578063a22cb465146105f5578063a90e66b714610611578063b88d4fde1461062d578063c87b56dd1461064957610227565b806375ceb341116100ff57806375ceb341146105335780638456cb591461054f5780639010d07c1461055957806391d148541461058957806395d89b41146105b957610227565b80634f6ccce7146104855780635c975abb146104b55780636352211e146104d357806370a082311461050357610227565b80632f745c59116101b35780633f4ba83a116101825780633f4ba83a146103f457806340c10f19146103fe57806342842e0e1461041a57806342966c681461043657806348b61d151461045257610227565b80632f745c591461036857806336568abe1461039857806339ccd77c146103b45780633cffda01146103d857610227565b806311831184116101fa57806311831184146102c657806318160ddd146102e257806323b872dd14610300578063248a9ca31461031c5780632f2ff15d1461034c57610227565b806301ffc9a71461022c57806306fdde031461025c578063081812fc1461027a578063095ea7b3146102aa575b600080fd5b61024660048036038101906102419190613f13565b610731565b6040516102539190614aa7565b60405180910390f35b610264610743565b6040516102719190614add565b60405180910390f35b610294600480360381019061028f9190613f65565b6107d5565b6040516102a19190614a40565b60405180910390f35b6102c460048036038101906102bf9190613d4d565b61085a565b005b6102e060048036038101906102db9190613c10565b610972565b005b6102ea610c06565b6040516102f79190614f52565b60405180910390f35b61031a60048036038101906103159190613af2565b610c13565b005b61033660048036038101906103319190613e72565b610c73565b6040516103439190614ac2565b60405180910390f35b61036660048036038101906103619190613e9b565b610c92565b005b610382600480360381019061037d9190613d4d565b610cc6565b60405161038f9190614f52565b60405180910390f35b6103b260048036038101906103ad9190613e9b565b610d6b565b005b6103bc610d9f565b6040516103cf9796959493929190614aff565b60405180910390f35b6103f260048036038101906103ed9190613d89565b6110bd565b005b6103fc6111eb565b005b61041860048036038101906104139190613d4d565b611265565b005b610434600480360381019061042f9190613af2565b6112e3565b005b610450600480360381019061044b9190613f65565b611303565b005b61046c60048036038101906104679190613f65565b61135f565b60405161047c9493929190614b91565b60405180910390f35b61049f600480360381019061049a9190613f65565b6115fc565b6040516104ac9190614f52565b60405180910390f35b6104bd611693565b6040516104ca9190614aa7565b60405180910390f35b6104ed60048036038101906104e89190613f65565b6116aa565b6040516104fa9190614a40565b60405180910390f35b61051d60048036038101906105189190613a8d565b61175c565b60405161052a9190614f52565b60405180910390f35b61054d60048036038101906105489190613bbc565b611814565b005b6105576118f8565b005b610573600480360381019061056e9190613ed7565b611972565b6040516105809190614a40565b60405180910390f35b6105a3600480360381019061059e9190613e9b565b6119a1565b6040516105b09190614aa7565b60405180910390f35b6105c1611a0b565b6040516105ce9190614add565b60405180910390f35b6105df611a9d565b6040516105ec9190614ac2565b60405180910390f35b61060f600480360381019061060a9190613d11565b611aa4565b005b61062b60048036038101906106269190613f65565b611c25565b005b61064760048036038101906106429190613b41565b611c87565b005b610663600480360381019061065e9190613f65565b611ce9565b6040516106709190614add565b60405180910390f35b610693600480360381019061068e9190613e72565b611dd9565b6040516106a09190614f52565b60405180910390f35b6106b1611dfd565b6040516106be9190614ac2565b60405180910390f35b6106e160048036038101906106dc9190613e9b565b611e21565b005b6106eb611e55565b6040516106f89190614ac2565b60405180910390f35b61071b60048036038101906107169190613ab6565b611e79565b6040516107289190614aa7565b60405180910390f35b600061073c82611f4b565b9050919050565b606060028054610752906151ac565b80601f016020809104026020016040519081016040528092919081815260200182805461077e906151ac565b80156107cb5780601f106107a0576101008083540402835291602001916107cb565b820191906000526020600020905b8154815290600101906020018083116107ae57829003601f168201915b5050505050905090565b60006107e082611fc5565b61081f576040517f08c379a000000000000000000000000000000000000000000000000000000000815260040161081690614e12565b60405180910390fd5b6006600083815260200190815260200160002060009054906101000a900473ffffffffffffffffffffffffffffffffffffffff169050919050565b6000610865826116aa565b90508073ffffffffffffffffffffffffffffffffffffffff168373ffffffffffffffffffffffffffffffffffffffff1614156108d6576040517f08c379a00000000000000000000000000000000000000000000000000000000081526004016108cd90614e72565b60405180910390fd5b8073ffffffffffffffffffffffffffffffffffffffff166108f5612031565b73ffffffffffffffffffffffffffffffffffffffff16148061092457506109238161091e612031565b611e79565b5b610963576040517f08c379a000000000000000000000000000000000000000000000000000000000815260040161095a90614d92565b60405180910390fd5b61096d8383612039565b505050565b6109a37f9f2df0fed2c77648de5860a4cc508cd0818c85b8b8a1ab4ceeef8d981c8956a661099e612031565b6119a1565b6109e2576040517f08c379a00000000000000000000000000000000000000000000000000000000081526004016109d990614ed2565b60405180910390fd5b60008551905060005b81811015610bfc5785600e6000898481518110610a31577f4e487b7100000000000000000000000000000000000000000000000000000000600052603260045260246000fd5b602002602001015181526020019081526020016000206000019080519060200190610a5d9291906137c6565b5084600e6000898481518110610a9c577f4e487b7100000000000000000000000000000000000000000000000000000000600052603260045260246000fd5b602002602001015181526020019081526020016000206001019080519060200190610ac89291906137c6565b5083600e6000898481518110610b07577f4e487b7100000000000000000000000000000000000000000000000000000000600052603260045260246000fd5b602002602001015181526020019081526020016000206002019080519060200190610b339291906137c6565b5082600e6000898481518110610b72577f4e487b7100000000000000000000000000000000000000000000000000000000600052603260045260246000fd5b602002602001015181526020019081526020016000206003019080519060200190610b9e9291906137c6565b50610be988888381518110610bdc577f4e487b7100000000000000000000000000000000000000000000000000000000600052603260045260246000fd5b60200260200101516120f2565b8080610bf4906151de565b9150506109eb565b5050505050505050565b6000600a80549050905090565b610c24610c1e612031565b826122c0565b610c63576040517f08c379a0000000000000000000000000000000000000000000000000000000008152600401610c5a90614e92565b60405180910390fd5b610c6e83838361239e565b505050565b6000806000838152602001908152602001600020600101549050919050565b610c9c82826125fa565b610cc18160016000858152602001908152602001600020611f1b90919063ffffffff16565b505050565b6000610cd18361175c565b8210610d12576040517f08c379a0000000000000000000000000000000000000000000000000000000008152600401610d0990614c72565b60405180910390fd5b600860008473ffffffffffffffffffffffffffffffffffffffff1673ffffffffffffffffffffffffffffffffffffffff168152602001908152602001600020600083815260200190815260200160002054905092915050565b610d758282612660565b610d9a81600160008581526020019081526020016000206126e390919063ffffffff16565b505050565b606080600060606000606080600f600001600f600101600f60020160009054906101000a900460ff16600f600301600f60040160009054906101000a900460ff16600f600501600f600601868054610df6906151ac565b80601f0160208091040260200160405190810160405280929190818152602001828054610e22906151ac565b8015610e6f5780601f10610e4457610100808354040283529160200191610e6f565b820191906000526020600020905b815481529060010190602001808311610e5257829003601f168201915b50505050509650858054610e82906151ac565b80601f0160208091040260200160405190810160405280929190818152602001828054610eae906151ac565b8015610efb5780601f10610ed057610100808354040283529160200191610efb565b820191906000526020600020905b815481529060010190602001808311610ede57829003601f168201915b50505050509550838054610f0e906151ac565b80601f0160208091040260200160405190810160405280929190818152602001828054610f3a906151ac565b8015610f875780601f10610f5c57610100808354040283529160200191610f87565b820191906000526020600020905b815481529060010190602001808311610f6a57829003601f168201915b50505050509350818054610f9a906151ac565b80601f0160208091040260200160405190810160405280929190818152602001828054610fc6906151ac565b80156110135780601f10610fe857610100808354040283529160200191611013565b820191906000526020600020905b815481529060010190602001808311610ff657829003601f168201915b50505050509150808054611026906151ac565b80601f0160208091040260200160405190810160405280929190818152602001828054611052906151ac565b801561109f5780601f106110745761010080835404028352916020019161109f565b820191906000526020600020905b81548152906001019060200180831161108257829003601f168201915b50505050509050965096509650965096509650965090919293949596565b6110ee7f9f2df0fed2c77648de5860a4cc508cd0818c85b8b8a1ab4ceeef8d981c8956a66110e9612031565b6119a1565b61112d576040517f08c379a000000000000000000000000000000000000000000000000000000000815260040161112490614ed2565b60405180910390fd5b83600e600087815260200190815260200160002060000190805190602001906111579291906137c6565b5082600e600087815260200190815260200160002060010190805190602001906111829291906137c6565b5081600e600087815260200190815260200160002060020190805190602001906111ad9291906137c6565b5080600e600087815260200190815260200160002060030190805190602001906111d89291906137c6565b506111e386866120f2565b505050505050565b61121c7f65d7a28e3265b37a6474929f336521b332c1681b933f6cb9f3376673440d862a611217612031565b6119a1565b61125b576040517f08c379a000000000000000000000000000000000000000000000000000000000815260040161125290614f12565b60405180910390fd5b611263612713565b565b6112967f9f2df0fed2c77648de5860a4cc508cd0818c85b8b8a1ab4ceeef8d981c8956a6611291612031565b6119a1565b6112d5576040517f08c379a00000000000000000000000000000000000000000000000000000000081526004016112cc90614ed2565b60405180910390fd5b6112df82826120f2565b5050565b6112fe83838360405180602001604052806000815250611c87565b505050565b61131461130e612031565b826122c0565b611353576040517f08c379a000000000000000000000000000000000000000000000000000000000815260040161134a90614ef2565b60405180910390fd5b61135c816127b5565b50565b606080606080600e6000868152602001908152602001600020600001600e6000878152602001908152602001600020600101600e6000888152602001908152602001600020600201600e60008981526020019081526020016000206003018380546113c9906151ac565b80601f01602080910402602001604051908101604052809291908181526020018280546113f5906151ac565b80156114425780601f1061141757610100808354040283529160200191611442565b820191906000526020600020905b81548152906001019060200180831161142557829003601f168201915b50505050509350828054611455906151ac565b80601f0160208091040260200160405190810160405280929190818152602001828054611481906151ac565b80156114ce5780601f106114a3576101008083540402835291602001916114ce565b820191906000526020600020905b8154815290600101906020018083116114b157829003601f168201915b505050505092508180546114e1906151ac565b80601f016020809104026020016040519081016040528092919081815260200182805461150d906151ac565b801561155a5780601f1061152f5761010080835404028352916020019161155a565b820191906000526020600020905b81548152906001019060200180831161153d57829003601f168201915b5050505050915080805461156d906151ac565b80601f0160208091040260200160405190810160405280929190818152602001828054611599906151ac565b80156115e65780601f106115bb576101008083540402835291602001916115e6565b820191906000526020600020905b8154815290600101906020018083116115c957829003601f168201915b5050505050905093509350935093509193509193565b6000611606610c06565b8210611647576040517f08c379a000000000000000000000000000000000000000000000000000000000815260040161163e90614eb2565b60405180910390fd5b600a8281548110611681577f4e487b7100000000000000000000000000000000000000000000000000000000600052603260045260246000fd5b90600052602060002001549050919050565b6000600c60009054906101000a900460ff16905090565b6000806004600084815260200190815260200160002060009054906101000a900473ffffffffffffffffffffffffffffffffffffffff169050600073ffffffffffffffffffffffffffffffffffffffff168173ffffffffffffffffffffffffffffffffffffffff161415611753576040517f08c379a000000000000000000000000000000000000000000000000000000000815260040161174a90614dd2565b60405180910390fd5b80915050919050565b60008073ffffffffffffffffffffffffffffffffffffffff168273ffffffffffffffffffffffffffffffffffffffff1614156117cd576040517f08c379a00000000000000000000000000000000000000000000000000000000081526004016117c490614db2565b60405180910390fd5b600560008373ffffffffffffffffffffffffffffffffffffffff1673ffffffffffffffffffffffffffffffffffffffff168152602001908152602001600020549050919050565b6118457f9f2df0fed2c77648de5860a4cc508cd0818c85b8b8a1ab4ceeef8d981c8956a6611840612031565b6119a1565b611884576040517f08c379a000000000000000000000000000000000000000000000000000000000815260040161187b90614ed2565b60405180910390fd5b60008151905060005b818110156118f2576118df848483815181106118d2577f4e487b7100000000000000000000000000000000000000000000000000000000600052603260045260246000fd5b60200260200101516120f2565b80806118ea906151de565b91505061188d565b50505050565b6119297f65d7a28e3265b37a6474929f336521b332c1681b933f6cb9f3376673440d862a611924612031565b6119a1565b611968576040517f08c379a000000000000000000000000000000000000000000000000000000000815260040161195f90614cd2565b60405180910390fd5b6119706128c6565b565b6000611999826001600086815260200190815260200160002061296990919063ffffffff16565b905092915050565b600080600084815260200190815260200160002060000160008373ffffffffffffffffffffffffffffffffffffffff1673ffffffffffffffffffffffffffffffffffffffff16815260200190815260200160002060009054906101000a900460ff16905092915050565b606060038054611a1a906151ac565b80601f0160208091040260200160405190810160405280929190818152602001828054611a46906151ac565b8015611a935780601f10611a6857610100808354040283529160200191611a93565b820191906000526020600020905b815481529060010190602001808311611a7657829003601f168201915b5050505050905090565b6000801b81565b611aac612031565b73ffffffffffffffffffffffffffffffffffffffff168273ffffffffffffffffffffffffffffffffffffffff161415611b1a576040517f08c379a0000000000000000000000000000000000000000000000000000000008152600401611b1190614d12565b60405180910390fd5b8060076000611b27612031565b73ffffffffffffffffffffffffffffffffffffffff1673ffffffffffffffffffffffffffffffffffffffff16815260200190815260200160002060008473ffffffffffffffffffffffffffffffffffffffff1673ffffffffffffffffffffffffffffffffffffffff16815260200190815260200160002060006101000a81548160ff0219169083151502179055508173ffffffffffffffffffffffffffffffffffffffff16611bd4612031565b73ffffffffffffffffffffffffffffffffffffffff167f17307eab39ab6107e8899845ad3d59bd9653f200f220920489ca2b5937696c3183604051611c199190614aa7565b60405180910390a35050565b611c2e81611303565b600e600082815260200190815260200160002060008082016000611c52919061384c565b600182016000611c62919061384c565b600282016000611c72919061384c565b600382016000611c82919061384c565b505050565b611c98611c92612031565b836122c0565b611cd7576040517f08c379a0000000000000000000000000000000000000000000000000000000008152600401611cce90614e92565b60405180910390fd5b611ce384848484612983565b50505050565b6060611cf482611fc5565b611d33576040517f08c379a0000000000000000000000000000000000000000000000000000000008152600401611d2a90614e52565b60405180910390fd5b600e60008381526020019081526020016000206001018054611d54906151ac565b80601f0160208091040260200160405190810160405280929190818152602001828054611d80906151ac565b8015611dcd5780601f10611da257610100808354040283529160200191611dcd565b820191906000526020600020905b815481529060010190602001808311611db057829003601f168201915b50505050509050919050565b6000611df6600160008481526020019081526020016000206129df565b9050919050565b7f9f2df0fed2c77648de5860a4cc508cd0818c85b8b8a1ab4ceeef8d981c8956a681565b611e2b82826129f4565b611e5081600160008581526020019081526020016000206126e390919063ffffffff16565b505050565b7f65d7a28e3265b37a6474929f336521b332c1681b933f6cb9f3376673440d862a81565b6000600760008473ffffffffffffffffffffffffffffffffffffffff1673ffffffffffffffffffffffffffffffffffffffff16815260200190815260200160002060008373ffffffffffffffffffffffffffffffffffffffff1673ffffffffffffffffffffffffffffffffffffffff16815260200190815260200160002060009054906101000a900460ff16905092915050565b611f178282612a5a565b5050565b6000611f43836000018373ffffffffffffffffffffffffffffffffffffffff1660001b612b3a565b905092915050565b60007f780e9d63000000000000000000000000000000000000000000000000000000007bffffffffffffffffffffffffffffffffffffffffffffffffffffffff1916827bffffffffffffffffffffffffffffffffffffffffffffffffffffffff19161480611fbe5750611fbd82612baa565b5b9050919050565b60008073ffffffffffffffffffffffffffffffffffffffff166004600084815260200190815260200160002060009054906101000a900473ffffffffffffffffffffffffffffffffffffffff1673ffffffffffffffffffffffffffffffffffffffff1614159050919050565b600033905090565b816006600083815260200190815260200160002060006101000a81548173ffffffffffffffffffffffffffffffffffffffff021916908373ffffffffffffffffffffffffffffffffffffffff160217905550808273ffffffffffffffffffffffffffffffffffffffff166120ac836116aa565b73ffffffffffffffffffffffffffffffffffffffff167f8c5be1e5ebec7d5bd14f71427d1e84f3dd0314c0f7b2291e5b200ac8c7c3b92560405160405180910390a45050565b600073ffffffffffffffffffffffffffffffffffffffff168273ffffffffffffffffffffffffffffffffffffffff161415612162576040517f08c379a000000000000000000000000000000000000000000000000000000000815260040161215990614df2565b60405180910390fd5b61216b81611fc5565b156121ab576040517f08c379a00000000000000000000000000000000000000000000000000000000081526004016121a290614cb2565b60405180910390fd5b6121b760008383612c8c565b6001600560008473ffffffffffffffffffffffffffffffffffffffff1673ffffffffffffffffffffffffffffffffffffffff16815260200190815260200160002060008282546122079190615062565b92505081905550816004600083815260200190815260200160002060006101000a81548173ffffffffffffffffffffffffffffffffffffffff021916908373ffffffffffffffffffffffffffffffffffffffff160217905550808273ffffffffffffffffffffffffffffffffffffffff16600073ffffffffffffffffffffffffffffffffffffffff167fddf252ad1be2c89b69c2b068fc378daa952ba7f163c4a11628f55a4df523b3ef60405160405180910390a45050565b60006122cb82611fc5565b61230a576040517f08c379a000000000000000000000000000000000000000000000000000000000815260040161230190614d32565b60405180910390fd5b6000612315836116aa565b90508073ffffffffffffffffffffffffffffffffffffffff168473ffffffffffffffffffffffffffffffffffffffff16148061238457508373ffffffffffffffffffffffffffffffffffffffff1661236c846107d5565b73ffffffffffffffffffffffffffffffffffffffff16145b8061239557506123948185611e79565b5b91505092915050565b8273ffffffffffffffffffffffffffffffffffffffff166123be826116aa565b73ffffffffffffffffffffffffffffffffffffffff1614612414576040517f08c379a000000000000000000000000000000000000000000000000000000000815260040161240b90614e32565b60405180910390fd5b600073ffffffffffffffffffffffffffffffffffffffff168273ffffffffffffffffffffffffffffffffffffffff161415612484576040517f08c379a000000000000000000000000000000000000000000000000000000000815260040161247b90614cf2565b60405180910390fd5b61248f838383612c8c565b61249a600082612039565b6001600560008573ffffffffffffffffffffffffffffffffffffffff1673ffffffffffffffffffffffffffffffffffffffff16815260200190815260200160002060008282546124ea91906150b8565b925050819055506001600560008473ffffffffffffffffffffffffffffffffffffffff1673ffffffffffffffffffffffffffffffffffffffff16815260200190815260200160002060008282546125419190615062565b92505081905550816004600083815260200190815260200160002060006101000a81548173ffffffffffffffffffffffffffffffffffffffff021916908373ffffffffffffffffffffffffffffffffffffffff160217905550808273ffffffffffffffffffffffffffffffffffffffff168473ffffffffffffffffffffffffffffffffffffffff167fddf252ad1be2c89b69c2b068fc378daa952ba7f163c4a11628f55a4df523b3ef60405160405180910390a4505050565b61261361260683610c73565b61260e612031565b6119a1565b612652576040517f08c379a000000000000000000000000000000000000000000000000000000000815260040161264990614c32565b60405180910390fd5b61265c8282612a5a565b5050565b612668612031565b73ffffffffffffffffffffffffffffffffffffffff168173ffffffffffffffffffffffffffffffffffffffff16146126d5576040517f08c379a00000000000000000000000000000000000000000000000000000000081526004016126cc90614f32565b60405180910390fd5b6126df8282612c9c565b5050565b600061270b836000018373ffffffffffffffffffffffffffffffffffffffff1660001b612d7d565b905092915050565b61271b611693565b61275a576040517f08c379a000000000000000000000000000000000000000000000000000000000815260040161275190614c52565b60405180910390fd5b6000600c60006101000a81548160ff0219169083151502179055507f5db9ee0a495bf2e6ff9c91a7834c1ba4fdd244a5e8aa4e537bd38aeae4b073aa61279e612031565b6040516127ab9190614a40565b60405180910390a1565b60006127c0826116aa565b90506127ce81600084612c8c565b6127d9600083612039565b6001600560008373ffffffffffffffffffffffffffffffffffffffff1673ffffffffffffffffffffffffffffffffffffffff168152602001908152602001600020600082825461282991906150b8565b925050819055506004600083815260200190815260200160002060006101000a81549073ffffffffffffffffffffffffffffffffffffffff021916905581600073ffffffffffffffffffffffffffffffffffffffff168273ffffffffffffffffffffffffffffffffffffffff167fddf252ad1be2c89b69c2b068fc378daa952ba7f163c4a11628f55a4df523b3ef60405160405180910390a45050565b6128ce611693565b1561290e576040517f08c379a000000000000000000000000000000000000000000000000000000000815260040161290590614d72565b60405180910390fd5b6001600c60006101000a81548160ff0219169083151502179055507f62e78cea01bee320cd4e420270b5ea74000d11b0c9f74754ebdbfc544b05a258612952612031565b60405161295f9190614a40565b60405180910390a1565b60006129788360000183612f07565b60001c905092915050565b61298e84848461239e565b61299a84848484612fa1565b6129d9576040517f08c379a00000000000000000000000000000000000000000000000000000000081526004016129d090614c92565b60405180910390fd5b50505050565b60006129ed82600001613138565b9050919050565b612a0d612a0083610c73565b612a08612031565b6119a1565b612a4c576040517f08c379a0000000000000000000000000000000000000000000000000000000008152600401612a4390614d52565b60405180910390fd5b612a568282612c9c565b5050565b612a6482826119a1565b612b3657600160008084815260200190815260200160002060000160008373ffffffffffffffffffffffffffffffffffffffff1673ffffffffffffffffffffffffffffffffffffffff16815260200190815260200160002060006101000a81548160ff021916908315150217905550612adb612031565b73ffffffffffffffffffffffffffffffffffffffff168173ffffffffffffffffffffffffffffffffffffffff16837f2f8788117e7eff1d82e926ec794901d17c78024a50270940304540a733656f0d60405160405180910390a45b5050565b6000612b468383613149565b612b9f578260000182908060018154018082558091505060019003906000526020600020016000909190919091505582600001805490508360010160008481526020019081526020016000208190555060019050612ba4565b600090505b92915050565b60007f80ac58cd000000000000000000000000000000000000000000000000000000007bffffffffffffffffffffffffffffffffffffffffffffffffffffffff1916827bffffffffffffffffffffffffffffffffffffffffffffffffffffffff19161480612c7557507f5b5e139f000000000000000000000000000000000000000000000000000000007bffffffffffffffffffffffffffffffffffffffffffffffffffffffff1916827bffffffffffffffffffffffffffffffffffffffffffffffffffffffff1916145b80612c855750612c848261316c565b5b9050919050565b612c978383836131e6565b505050565b612ca682826119a1565b15612d7957600080600084815260200190815260200160002060000160008373ffffffffffffffffffffffffffffffffffffffff1673ffffffffffffffffffffffffffffffffffffffff16815260200190815260200160002060006101000a81548160ff021916908315150217905550612d1e612031565b73ffffffffffffffffffffffffffffffffffffffff168173ffffffffffffffffffffffffffffffffffffffff16837ff6391f5c32d9c69d2a47ea670b442974b53935d1edc7fd64eb21e047a839171b60405160405180910390a45b5050565b60008083600101600084815260200190815260200160002054905060008114612efb576000600182612daf91906150b8565b9050600060018660000180549050612dc791906150b8565b90506000866000018281548110612e07577f4e487b7100000000000000000000000000000000000000000000000000000000600052603260045260246000fd5b9060005260206000200154905080876000018481548110612e51577f4e487b7100000000000000000000000000000000000000000000000000000000600052603260045260246000fd5b9060005260206000200181905550600183612e6c9190615062565b8760010160008381526020019081526020016000208190555086600001805480612ebf577f4e487b7100000000000000000000000000000000000000000000000000000000600052603160045260246000fd5b60019003818190600052602060002001600090559055866001016000878152602001908152602001600020600090556001945050505050612f01565b60009150505b92915050565b600081836000018054905011612f52576040517f08c379a0000000000000000000000000000000000000000000000000000000008152600401612f4990614bf2565b60405180910390fd5b826000018281548110612f8e577f4e487b7100000000000000000000000000000000000000000000000000000000600052603260045260246000fd5b9060005260206000200154905092915050565b6000612fc28473ffffffffffffffffffffffffffffffffffffffff1661323e565b1561312b578373ffffffffffffffffffffffffffffffffffffffff1663150b7a02612feb612031565b8786866040518563ffffffff1660e01b815260040161300d9493929190614a5b565b602060405180830381600087803b15801561302757600080fd5b505af192505050801561305857506040513d601f19601f820116820180604052508101906130559190613f3c565b60015b6130db573d8060008114613088576040519150601f19603f3d011682016040523d82523d6000602084013e61308d565b606091505b506000815114156130d3576040517f08c379a00000000000000000000000000000000000000000000000000000000081526004016130ca90614c92565b60405180910390fd5b805181602001fd5b63150b7a0260e01b7bffffffffffffffffffffffffffffffffffffffffffffffffffffffff1916817bffffffffffffffffffffffffffffffffffffffffffffffffffffffff191614915050613130565b600190505b949350505050565b600081600001805490509050919050565b600080836001016000848152602001908152602001600020541415905092915050565b60007f5a05180f000000000000000000000000000000000000000000000000000000007bffffffffffffffffffffffffffffffffffffffffffffffffffffffff1916827bffffffffffffffffffffffffffffffffffffffffffffffffffffffff191614806131df57506131de82613251565b5b9050919050565b6131f18383836132cb565b6131f9611693565b15613239576040517f08c379a000000000000000000000000000000000000000000000000000000000815260040161323090614c12565b60405180910390fd5b505050565b600080823b905060008111915050919050565b60007f7965db0b000000000000000000000000000000000000000000000000000000007bffffffffffffffffffffffffffffffffffffffffffffffffffffffff1916827bffffffffffffffffffffffffffffffffffffffffffffffffffffffff191614806132c457506132c3826133df565b5b9050919050565b6132d6838383613449565b600073ffffffffffffffffffffffffffffffffffffffff168373ffffffffffffffffffffffffffffffffffffffff161415613319576133148161344e565b613358565b8173ffffffffffffffffffffffffffffffffffffffff168373ffffffffffffffffffffffffffffffffffffffff1614613357576133568382613497565b5b5b600073ffffffffffffffffffffffffffffffffffffffff168273ffffffffffffffffffffffffffffffffffffffff16141561339b5761339681613604565b6133da565b8273ffffffffffffffffffffffffffffffffffffffff168273ffffffffffffffffffffffffffffffffffffffff16146133d9576133d88282613747565b5b5b505050565b60007f01ffc9a7000000000000000000000000000000000000000000000000000000007bffffffffffffffffffffffffffffffffffffffffffffffffffffffff1916827bffffffffffffffffffffffffffffffffffffffffffffffffffffffff1916149050919050565b505050565b600a80549050600b600083815260200190815260200160002081905550600a81908060018154018082558091505060019003906000526020600020016000909190919091505550565b600060016134a48461175c565b6134ae91906150b8565b9050600060096000848152602001908152602001600020549050818114613593576000600860008673ffffffffffffffffffffffffffffffffffffffff1673ffffffffffffffffffffffffffffffffffffffff168152602001908152602001600020600084815260200190815260200160002054905080600860008773ffffffffffffffffffffffffffffffffffffffff1673ffffffffffffffffffffffffffffffffffffffff168152602001908152602001600020600084815260200190815260200160002081905550816009600083815260200190815260200160002081905550505b6009600084815260200190815260200160002060009055600860008573ffffffffffffffffffffffffffffffffffffffff1673ffffffffffffffffffffffffffffffffffffffff16815260200190815260200160002060008381526020019081526020016000206000905550505050565b60006001600a8054905061361891906150b8565b90506000600b60008481526020019081526020016000205490506000600a838154811061366e577f4e487b7100000000000000000000000000000000000000000000000000000000600052603260045260246000fd5b9060005260206000200154905080600a83815481106136b6577f4e487b7100000000000000000000000000000000000000000000000000000000600052603260045260246000fd5b906000526020600020018190555081600b600083815260200190815260200160002081905550600b600085815260200190815260200160002060009055600a80548061372b577f4e487b7100000000000000000000000000000000000000000000000000000000600052603160045260246000fd5b6001900381819060005260206000200160009055905550505050565b60006137528361175c565b905081600860008573ffffffffffffffffffffffffffffffffffffffff1673ffffffffffffffffffffffffffffffffffffffff168152602001908152602001600020600083815260200190815260200160002081905550806009600084815260200190815260200160002081905550505050565b8280546137d2906151ac565b90600052602060002090601f0160209004810192826137f4576000855561383b565b82601f1061380d57805160ff191683800117855561383b565b8280016001018555821561383b579182015b8281111561383a57825182559160200191906001019061381f565b5b509050613848919061388c565b5090565b508054613858906151ac565b6000825580601f1061386a5750613889565b601f016020900490600052602060002090810190613888919061388c565b5b50565b5b808211156138a557600081600090555060010161388d565b5090565b60006138bc6138b784614f9e565b614f6d565b905080838252602082019050828560208602820111156138db57600080fd5b60005b8581101561390b57816138f18882613a78565b8452602084019350602083019250506001810190506138de565b5050509392505050565b600061392861392384614fca565b614f6d565b90508281526020810184848401111561394057600080fd5b61394b84828561516a565b509392505050565b600061396661396184614ffa565b614f6d565b90508281526020810184848401111561397e57600080fd5b61398984828561516a565b509392505050565b6000813590506139a0816152c5565b92915050565b600082601f8301126139b757600080fd5b81356139c78482602086016138a9565b91505092915050565b6000813590506139df816152dc565b92915050565b6000813590506139f4816152f3565b92915050565b600081359050613a098161530a565b92915050565b600081519050613a1e8161530a565b92915050565b600082601f830112613a3557600080fd5b8135613a45848260208601613915565b91505092915050565b600082601f830112613a5f57600080fd5b8135613a6f848260208601613953565b91505092915050565b600081359050613a8781615321565b92915050565b600060208284031215613a9f57600080fd5b6000613aad84828501613991565b91505092915050565b60008060408385031215613ac957600080fd5b6000613ad785828601613991565b9250506020613ae885828601613991565b9150509250929050565b600080600060608486031215613b0757600080fd5b6000613b1586828701613991565b9350506020613b2686828701613991565b9250506040613b3786828701613a78565b9150509250925092565b60008060008060808587031215613b5757600080fd5b6000613b6587828801613991565b9450506020613b7687828801613991565b9350506040613b8787828801613a78565b925050606085013567ffffffffffffffff811115613ba457600080fd5b613bb087828801613a24565b91505092959194509250565b60008060408385031215613bcf57600080fd5b6000613bdd85828601613991565b925050602083013567ffffffffffffffff811115613bfa57600080fd5b613c06858286016139a6565b9150509250929050565b60008060008060008060c08789031215613c2957600080fd5b6000613c3789828a01613991565b965050602087013567ffffffffffffffff811115613c5457600080fd5b613c6089828a016139a6565b955050604087013567ffffffffffffffff811115613c7d57600080fd5b613c8989828a01613a4e565b945050606087013567ffffffffffffffff811115613ca657600080fd5b613cb289828a01613a4e565b935050608087013567ffffffffffffffff811115613ccf57600080fd5b613cdb89828a01613a4e565b92505060a087013567ffffffffffffffff811115613cf857600080fd5b613d0489828a01613a4e565b9150509295509295509295565b60008060408385031215613d2457600080fd5b6000613d3285828601613991565b9250506020613d43858286016139d0565b9150509250929050565b60008060408385031215613d6057600080fd5b6000613d6e85828601613991565b9250506020613d7f85828601613a78565b9150509250929050565b60008060008060008060c08789031215613da257600080fd5b6000613db089828a01613991565b9650506020613dc189828a01613a78565b955050604087013567ffffffffffffffff811115613dde57600080fd5b613dea89828a01613a4e565b945050606087013567ffffffffffffffff811115613e0757600080fd5b613e1389828a01613a4e565b935050608087013567ffffffffffffffff811115613e3057600080fd5b613e3c89828a01613a4e565b92505060a087013567ffffffffffffffff811115613e5957600080fd5b613e6589828a01613a4e565b9150509295509295509295565b600060208284031215613e8457600080fd5b6000613e92848285016139e5565b91505092915050565b60008060408385031215613eae57600080fd5b6000613ebc858286016139e5565b9250506020613ecd85828601613991565b9150509250929050565b60008060408385031215613eea57600080fd5b6000613ef8858286016139e5565b9250506020613f0985828601613a78565b9150509250929050565b600060208284031215613f2557600080fd5b6000613f33848285016139fa565b91505092915050565b600060208284031215613f4e57600080fd5b6000613f5c84828501613a0f565b91505092915050565b600060208284031215613f7757600080fd5b6000613f8584828501613a78565b91505092915050565b613f97816150ec565b82525050565b613fa6816150fe565b82525050565b613fb58161510a565b82525050565b6000613fc68261502a565b613fd08185615040565b9350613fe0818560208601615179565b613fe9816152b4565b840191505092915050565b6000613fff82615035565b6140098185615051565b9350614019818560208601615179565b614022816152b4565b840191505092915050565b600061403a602283615051565b91507f456e756d657261626c655365743a20696e646578206f7574206f6620626f756e60008301527f64730000000000000000000000000000000000000000000000000000000000006020830152604082019050919050565b60006140a0602b83615051565b91507f4552433732315061757361626c653a20746f6b656e207472616e73666572207760008301527f68696c65207061757365640000000000000000000000000000000000000000006020830152604082019050919050565b6000614106602f83615051565b91507f416363657373436f6e74726f6c3a2073656e646572206d75737420626520616e60008301527f2061646d696e20746f206772616e7400000000000000000000000000000000006020830152604082019050919050565b600061416c601483615051565b91507f5061757361626c653a206e6f74207061757365640000000000000000000000006000830152602082019050919050565b60006141ac602b83615051565b91507f455243373231456e756d657261626c653a206f776e657220696e646578206f7560008301527f74206f6620626f756e64730000000000000000000000000000000000000000006020830152604082019050919050565b6000614212603283615051565b91507f4552433732313a207472616e7366657220746f206e6f6e20455243373231526560008301527f63656976657220696d706c656d656e74657200000000000000000000000000006020830152604082019050919050565b6000614278601c83615051565b91507f4552433732313a20746f6b656e20616c7265616479206d696e746564000000006000830152602082019050919050565b60006142b8603e83615051565b91507f4552433732315072657365744d696e7465725061757365724175746f49643a2060008301527f6d75737420686176652070617573657220726f6c6520746f20706175736500006020830152604082019050919050565b600061431e602483615051565b91507f4552433732313a207472616e7366657220746f20746865207a65726f2061646460008301527f72657373000000000000000000000000000000000000000000000000000000006020830152604082019050919050565b6000614384601983615051565b91507f4552433732313a20617070726f766520746f2063616c6c6572000000000000006000830152602082019050919050565b60006143c4602c83615051565b91507f4552433732313a206f70657261746f7220717565727920666f72206e6f6e657860008301527f697374656e7420746f6b656e00000000000000000000000000000000000000006020830152604082019050919050565b600061442a603083615051565b91507f416363657373436f6e74726f6c3a2073656e646572206d75737420626520616e60008301527f2061646d696e20746f207265766f6b65000000000000000000000000000000006020830152604082019050919050565b6000614490601083615051565b91507f5061757361626c653a20706175736564000000000000000000000000000000006000830152602082019050919050565b60006144d0603883615051565b91507f4552433732313a20617070726f76652063616c6c6572206973206e6f74206f7760008301527f6e6572206e6f7220617070726f76656420666f7220616c6c00000000000000006020830152604082019050919050565b6000614536602a83615051565b91507f4552433732313a2062616c616e636520717565727920666f7220746865207a6560008301527f726f2061646472657373000000000000000000000000000000000000000000006020830152604082019050919050565b600061459c602983615051565b91507f4552433732313a206f776e657220717565727920666f72206e6f6e657869737460008301527f656e7420746f6b656e00000000000000000000000000000000000000000000006020830152604082019050919050565b6000614602602083615051565b91507f4552433732313a206d696e7420746f20746865207a65726f20616464726573736000830152602082019050919050565b6000614642602c83615051565b91507f4552433732313a20617070726f76656420717565727920666f72206e6f6e657860008301527f697374656e7420746f6b656e00000000000000000000000000000000000000006020830152604082019050919050565b60006146a8602983615051565b91507f4552433732313a207472616e73666572206f6620746f6b656e2074686174206960008301527f73206e6f74206f776e00000000000000000000000000000000000000000000006020830152604082019050919050565b600061470e602f83615051565b91507f4552433732314d657461646174613a2055524920717565727920666f72206e6f60008301527f6e6578697374656e7420746f6b656e00000000000000000000000000000000006020830152604082019050919050565b6000614774602183615051565b91507f4552433732313a20617070726f76616c20746f2063757272656e74206f776e6560008301527f72000000000000000000000000000000000000000000000000000000000000006020830152604082019050919050565b60006147da603183615051565b91507f4552433732313a207472616e736665722063616c6c6572206973206e6f74206f60008301527f776e6572206e6f7220617070726f7665640000000000000000000000000000006020830152604082019050919050565b6000614840602c83615051565b91507f455243373231456e756d657261626c653a20676c6f62616c20696e646578206f60008301527f7574206f6620626f756e647300000000000000000000000000000000000000006020830152604082019050919050565b60006148a6603d83615051565b91507f4552433732315072657365744d696e7465725061757365724175746f49643a2060008301527f6d7573742068617665206d696e74657220726f6c6520746f206d696e740000006020830152604082019050919050565b600061490c603083615051565b91507f4552433732314275726e61626c653a2063616c6c6572206973206e6f74206f7760008301527f6e6572206e6f7220617070726f766564000000000000000000000000000000006020830152604082019050919050565b6000614972604083615051565b91507f4552433732315072657365744d696e7465725061757365724175746f49643a2060008301527f6d75737420686176652070617573657220726f6c6520746f20756e70617573656020830152604082019050919050565b60006149d8602f83615051565b91507f416363657373436f6e74726f6c3a2063616e206f6e6c792072656e6f756e636560008301527f20726f6c657320666f722073656c6600000000000000000000000000000000006020830152604082019050919050565b614a3a81615160565b82525050565b6000602082019050614a556000830184613f8e565b92915050565b6000608082019050614a706000830187613f8e565b614a7d6020830186613f8e565b614a8a6040830185614a31565b8181036060830152614a9c8184613fbb565b905095945050505050565b6000602082019050614abc6000830184613f9d565b92915050565b6000602082019050614ad76000830184613fac565b92915050565b60006020820190508181036000830152614af78184613ff4565b905092915050565b600060e0820190508181036000830152614b19818a613ff4565b90508181036020830152614b2d8189613ff4565b9050614b3c6040830188613f9d565b8181036060830152614b4e8187613ff4565b9050614b5d6080830186613f9d565b81810360a0830152614b6f8185613ff4565b905081810360c0830152614b838184613ff4565b905098975050505050505050565b60006080820190508181036000830152614bab8187613ff4565b90508181036020830152614bbf8186613ff4565b90508181036040830152614bd38185613ff4565b90508181036060830152614be78184613ff4565b905095945050505050565b60006020820190508181036000830152614c0b8161402d565b9050919050565b60006020820190508181036000830152614c2b81614093565b9050919050565b60006020820190508181036000830152614c4b816140f9565b9050919050565b60006020820190508181036000830152614c6b8161415f565b9050919050565b60006020820190508181036000830152614c8b8161419f565b9050919050565b60006020820190508181036000830152614cab81614205565b9050919050565b60006020820190508181036000830152614ccb8161426b565b9050919050565b60006020820190508181036000830152614ceb816142ab565b9050919050565b60006020820190508181036000830152614d0b81614311565b9050919050565b60006020820190508181036000830152614d2b81614377565b9050919050565b60006020820190508181036000830152614d4b816143b7565b9050919050565b60006020820190508181036000830152614d6b8161441d565b9050919050565b60006020820190508181036000830152614d8b81614483565b9050919050565b60006020820190508181036000830152614dab816144c3565b9050919050565b60006020820190508181036000830152614dcb81614529565b9050919050565b60006020820190508181036000830152614deb8161458f565b9050919050565b60006020820190508181036000830152614e0b816145f5565b9050919050565b60006020820190508181036000830152614e2b81614635565b9050919050565b60006020820190508181036000830152614e4b8161469b565b9050919050565b60006020820190508181036000830152614e6b81614701565b9050919050565b60006020820190508181036000830152614e8b81614767565b9050919050565b60006020820190508181036000830152614eab816147cd565b9050919050565b60006020820190508181036000830152614ecb81614833565b9050919050565b60006020820190508181036000830152614eeb81614899565b9050919050565b60006020820190508181036000830152614f0b816148ff565b9050919050565b60006020820190508181036000830152614f2b81614965565b9050919050565b60006020820190508181036000830152614f4b816149cb565b9050919050565b6000602082019050614f676000830184614a31565b92915050565b6000604051905081810181811067ffffffffffffffff82111715614f9457614f93615285565b5b8060405250919050565b600067ffffffffffffffff821115614fb957614fb8615285565b5b602082029050602081019050919050565b600067ffffffffffffffff821115614fe557614fe4615285565b5b601f19601f8301169050602081019050919050565b600067ffffffffffffffff82111561501557615014615285565b5b601f19601f8301169050602081019050919050565b600081519050919050565b600081519050919050565b600082825260208201905092915050565b600082825260208201905092915050565b600061506d82615160565b915061507883615160565b9250827fffffffffffffffffffffffffffffffffffffffffffffffffffffffffffffffff038211156150ad576150ac615227565b5b828201905092915050565b60006150c382615160565b91506150ce83615160565b9250828210156150e1576150e0615227565b5b828203905092915050565b60006150f782615140565b9050919050565b60008115159050919050565b6000819050919050565b60007fffffffff0000000000000000000000000000000000000000000000000000000082169050919050565b600073ffffffffffffffffffffffffffffffffffffffff82169050919050565b6000819050919050565b82818337600083830152505050565b60005b8381101561519757808201518184015260208101905061517c565b838111156151a6576000848401525b50505050565b600060028204905060018216806151c457607f821691505b602082108114156151d8576151d7615256565b5b50919050565b60006151e982615160565b91507fffffffffffffffffffffffffffffffffffffffffffffffffffffffffffffffff82141561521c5761521b615227565b5b600182019050919050565b7f4e487b7100000000000000000000000000000000000000000000000000000000600052601160045260246000fd5b7f4e487b7100000000000000000000000000000000000000000000000000000000600052602260045260246000fd5b7f4e487b7100000000000000000000000000000000000000000000000000000000600052604160045260246000fd5b6000601f19601f8301169050919050565b6152ce816150ec565b81146152d957600080fd5b50565b6152e5816150fe565b81146152f057600080fd5b50565b6152fc8161510a565b811461530757600080fd5b50565b61531381615114565b811461531e57600080fd5b50565b61532a81615160565b811461533557600080fd5b5056fea2646970667358221220107b4450710c81700edae062fc02c1107c972f6373ab669bf46ae1cbf1b4307b64736f6c63430008000033",
  "linkReferences": {},
  "deployedLinkReferences": {}
}