{
  "_format": "hh-sol-artifact-1",
  "contractName": "ERC721Uptick",
  "sourceName": "contracts/ERC721Uptick.sol",
  "abi": [
    {
      "inputs": [
        {
          "internalType": "string",
          "name": "name",
          "type": "string"
        },
        {
          "internalType": "string",
          "name": "symbol",
          "type": "string"
        },
        {
          "internalType": "string",
          "name": "baseTokenURI",
          "type": "string"
        },
        {
          "internalType": "string",
          "name": "data",
          "type": "string"
        },
        {
          "internalType": "string",
          "name": "description",
          "type": "string"
        },
        {
          "internalType": "bool",
          "name": "mint_restricted",
          "type": "bool"
        },
        {
          "internalType": "string",
          "name": "schema",
          "type": "string"
        },
        {
          "internalType": "bool",
          "name": "update_restricted",
          "type": "bool"
        },
        {
          "internalType": "string",
          "name": "uri_hash",
          "type": "string"
        }
      ],
      "stateMutability": "nonpayable",
      "type": "constructor"
    },
    {
      "anonymous": false,
      "inputs": [
        {
          "indexed": true,
          "internalType": "address",
          "name": "owner",
          "type": "address"
        },
        {
          "indexed": true,
          "internalType": "address",
          "name": "approved",
          "type": "address"
        },
        {
          "indexed": true,
          "internalType": "uint256",
          "name": "tokenId",
          "type": "uint256"
        }
      ],
      "name": "Approval",
      "type": "event"
    },
    {
      "anonymous": false,
      "inputs": [
        {
          "indexed": true,
          "internalType": "address",
          "name": "owner",
          "type": "address"
        },
        {
          "indexed": true,
          "internalType": "address",
          "name": "operator",
          "type": "address"
        },
        {
          "indexed": false,
          "internalType": "bool",
          "name": "approved",
          "type": "bool"
        }
      ],
      "name": "ApprovalForAll",
      "type": "event"
    },
    {
      "anonymous": false,
      "inputs": [
        {
          "indexed": false,
          "internalType": "address",
          "name": "account",
          "type": "address"
        }
      ],
      "name": "Paused",
      "type": "event"
    },
    {
      "anonymous": false,
      "inputs": [
        {
          "indexed": true,
          "internalType": "bytes32",
          "name": "role",
          "type": "bytes32"
        },
        {
          "indexed": true,
          "internalType": "bytes32",
          "name": "previousAdminRole",
          "type": "bytes32"
        },
        {
          "indexed": true,
          "internalType": "bytes32",
          "name": "newAdminRole",
          "type": "bytes32"
        }
      ],
      "name": "RoleAdminChanged",
      "type": "event"
    },
    {
      "anonymous": false,
      "inputs": [
        {
          "indexed": true,
          "internalType": "bytes32",
          "name": "role",
          "type": "bytes32"
        },
        {
          "indexed": true,
          "internalType": "address",
          "name": "account",
          "type": "address"
        },
        {
          "indexed": true,
          "internalType": "address",
          "name": "sender",
          "type": "address"
        }
      ],
      "name": "RoleGranted",
      "type": "event"
    },
    {
      "anonymous": false,
      "inputs": [
        {
          "indexed": true,
          "internalType": "bytes32",
          "name": "role",
          "type": "bytes32"
        },
        {
          "indexed": true,
          "internalType": "address",
          "name": "account",
          "type": "address"
        },
        {
          "indexed": true,
          "internalType": "address",
          "name": "sender",
          "type": "address"
        }
      ],
      "name": "RoleRevoked",
      "type": "event"
    },
    {
      "anonymous": false,
      "inputs": [
        {
          "indexed": true,
          "internalType": "address",
          "name": "from",
          "type": "address"
        },
        {
          "indexed": true,
          "internalType": "address",
          "name": "to",
          "type": "address"
        },
        {
          "indexed": true,
          "internalType": "uint256",
          "name": "tokenId",
          "type": "uint256"
        }
      ],
      "name": "Transfer",
      "type": "event"
    },
    {
      "anonymous": false,
      "inputs": [
        {
          "indexed": false,
          "internalType": "address",
          "name": "account",
          "type": "address"
        }
      ],
      "name": "Unpaused",
      "type": "event"
    },
    {
      "inputs": [],
      "name": "DEFAULT_ADMIN_ROLE",
      "outputs": [
        {
          "internalType": "bytes32",
          "name": "",
          "type": "bytes32"
        }
      ],
      "stateMutability": "view",
      "type": "function"
    },
    {
      "inputs": [],
      "name": "MINTER_ROLE",
      "outputs": [
        {
          "internalType": "bytes32",
          "name": "",
          "type": "bytes32"
        }
      ],
      "stateMutability": "view",
      "type": "function"
    },
    {
      "inputs": [],
      "name": "PAUSER_ROLE",
      "outputs": [
        {
          "internalType": "bytes32",
          "name": "",
          "type": "bytes32"
        }
      ],
      "stateMutability": "view",
      "type": "function"
    },
    {
      "inputs": [
        {
          "internalType": "address",
          "name": "to",
          "type": "address"
        },
        {
          "internalType": "uint256",
          "name": "tokenId",
          "type": "uint256"
        }
      ],
      "name": "approve",
      "outputs": [],
      "stateMutability": "nonpayable",
      "type": "function"
    },
    {
      "inputs": [
        {
          "internalType": "address",
          "name": "owner",
          "type": "address"
        }
      ],
      "name": "balanceOf",
      "outputs": [
        {
          "internalType": "uint256",
          "name": "",
          "type": "uint256"
        }
      ],
      "stateMutability": "view",
      "type": "function"
    },
    {
      "inputs": [
        {
          "internalType": "uint256",
          "name": "tokenId",
          "type": "uint256"
        }
      ],
      "name": "burn",
      "outputs": [],
      "stateMutability": "nonpayable",
      "type": "function"
    },
    {
      "inputs": [
        {
          "internalType": "uint256",
          "name": "id",
          "type": "uint256"
        }
      ],
      "name": "burnEnhance",
      "outputs": [],
      "stateMutability": "nonpayable",
      "type": "function"
    },
    {
      "inputs": [
        {
          "internalType": "uint256",
          "name": "tokenId",
          "type": "uint256"
        }
      ],
      "name": "getApproved",
      "outputs": [
        {
          "internalType": "address",
          "name": "",
          "type": "address"
        }
      ],
      "stateMutability": "view",
      "type": "function"
    },
    {
      "inputs": [],
      "name": "getClassEnhanceInfo",
      "outputs": [
        {
          "internalType": "string",
          "name": "data",
          "type": "string"
        },
        {
          "internalType": "string",
          "name": "description",
          "type": "string"
        },
        {
          "internalType": "bool",
          "name": "mint_restricted",
          "type": "bool"
        },
        {
          "internalType": "string",
          "name": "schema",
          "type": "string"
        },
        {
          "internalType": "bool",
          "name": "update_restricted",
          "type": "bool"
        },
        {
          "internalType": "string",
          "name": "uri",
          "type": "string"
        },
        {
          "internalType": "string",
          "name": "uri_hash",
          "type": "string"
        }
      ],
      "stateMutability": "view",
      "type": "function"
    },
    {
      "inputs": [
        {
          "internalType": "uint256",
          "name": "id",
          "type": "uint256"
        }
      ],
      "name": "getNFTEnhanceInfo",
      "outputs": [
        {
          "internalType": "string",
          "name": "name",
          "type": "string"
        },
        {
          "internalType": "string",
          "name": "uri",
          "type": "string"
        },
        {
          "internalType": "string",
          "name": "data",
          "type": "string"
        },
        {
          "internalType": "string",
          "name": "uriHash",
          "type": "string"
        }
      ],
      "stateMutability": "view",
      "type": "function"
    },
    {
      "inputs": [
        {
          "internalType": "bytes32",
          "name": "role",
          "type": "bytes32"
        }
      ],
      "name": "getRoleAdmin",
      "outputs": [
        {
          "internalType": "bytes32",
          "name": "",
          "type": "bytes32"
        }
      ],
      "stateMutability": "view",
      "type": "function"
    },
    {
      "inputs": [
        {
          "internalType": "bytes32",
          "name": "role",
          "type": "bytes32"
        },
        {
          "internalType": "uint256",
          "name": "index",
          "type": "uint256"
        }
      ],
      "name": "getRoleMember",
      "outputs": [
        {
          "internalType": "address",
          "name": "",
          "type": "address"
        }
      ],
      "stateMutability": "view",
      "type": "function"
    },
    {
      "inputs": [
        {
          "internalType": "bytes32",
          "name": "role",
          "type": "bytes32"
        }
      ],
      "name": "getRoleMemberCount",
      "outputs": [
        {
          "internalType": "uint256",
          "name": "",
          "type": "uint256"
        }
      ],
      "stateMutability": "view",
      "type": "function"
    },
    {
      "inputs": [
        {
          "internalType": "bytes32",
          "name": "role",
          "type": "bytes32"
        },
        {
          "internalType": "address",
          "name": "account",
          "type": "address"
        }
      ],
      "name": "grantRole",
      "outputs": [],
      "stateMutability": "nonpayable",
      "type": "function"
    },
    {
      "inputs": [
        {
          "internalType": "bytes32",
          "name": "role",
          "type": "bytes32"
        },
        {
          "internalType": "address",
          "name": "account",
          "type": "address"
        }
      ],
      "name": "hasRole",
      "outputs": [
        {
          "internalType": "bool",
          "name": "",
          "type": "bool"
        }
      ],
      "stateMutability": "view",
      "type": "function"
    },
    {
      "inputs": [
        {
          "internalType": "address",
          "name": "owner",
          "type": "address"
        },
        {
          "internalType": "address",
          "name": "operator",
          "type": "address"
        }
      ],
      "name": "isApprovedForAll",
      "outputs": [
        {
          "internalType": "bool",
          "name": "",
          "type": "bool"
        }
      ],
      "stateMutability": "view",
      "type": "function"
    },
    {
      "inputs": [
        {
          "internalType": "address",
          "name": "to",
          "type": "address"
        },
        {
          "internalType": "uint256",
          "name": "id",
          "type": "uint256"
        }
      ],
      "name": "mint",
      "outputs": [],
      "stateMutability": "nonpayable",
      "type": "function"
    },
    {
      "inputs": [
        {
          "internalType": "address",
          "name": "to",
          "type": "address"
        },
        {
          "internalType": "uint256[]",
          "name": "ids",
          "type": "uint256[]"
        }
      ],
      "name": "mintBatch",
      "outputs": [],
      "stateMutability": "nonpayable",
      "type": "function"
    },
    {
      "inputs": [
        {
          "internalType": "address",
          "name": "to",
          "type": "address"
        },
        {
          "internalType": "uint256",
          "name": "id",
          "type": "uint256"
        },
        {
          "internalType": "string",
          "name": "name",
          "type": "string"
        },
        {
          "internalType": "string",
          "name": "uri",
          "type": "string"
        },
        {
          "internalType": "string",
          "name": "data",
          "type": "string"
        },
        {
          "internalType": "string",
          "name": "uriHash",
          "type": "string"
        }
      ],
      "name": "mintEnhance",
      "outputs": [],
      "stateMutability": "nonpayable",
      "type": "function"
    },
    {
      "inputs": [
        {
          "internalType": "address",
          "name": "to",
          "type": "address"
        },
        {
          "internalType": "uint256[]",
          "name": "ids",
          "type": "uint256[]"
        },
        {
          "internalType": "string",
          "name": "name",
          "type": "string"
        },
        {
          "internalType": "string",
          "name": "uri",
          "type": "string"
        },
        {
          "internalType": "string",
          "name": "data",
          "type": "string"
        },
        {
          "internalType": "string",
          "name": "uriHash",
          "type": "string"
        }
      ],
      "name": "mintEnhanceBatch",
      "outputs": [],
      "stateMutability": "nonpayable",
      "type": "function"
    },
    {
      "inputs": [],
      "name": "name",
      "outputs": [
        {
          "internalType": "string",
          "name": "",
          "type": "string"
        }
      ],
      "stateMutability": "view",
      "type": "function"
    },
    {
      "inputs": [
        {
          "internalType": "uint256",
          "name": "tokenId",
          "type": "uint256"
        }
      ],
      "name": "ownerOf",
      "outputs": [
        {
          "internalType": "address",
          "name": "",
          "type": "address"
        }
      ],
      "stateMutability": "view",
      "type": "function"
    },
    {
      "inputs": [],
      "name": "pause",
      "outputs": [],
      "stateMutability": "nonpayable",
      "type": "function"
    },
    {
      "inputs": [],
      "name": "paused",
      "outputs": [
        {
          "internalType": "bool",
          "name": "",
          "type": "bool"
        }
      ],
      "stateMutability": "view",
      "type": "function"
    },
    {
      "inputs": [
        {
          "internalType": "bytes32",
          "name": "role",
          "type": "bytes32"
        },
        {
          "internalType": "address",
          "name": "account",
          "type": "address"
        }
      ],
      "name": "renounceRole",
      "outputs": [],
      "stateMutability": "nonpayable",
      "type": "function"
    },
    {
      "inputs": [
        {
          "internalType": "bytes32",
          "name": "role",
          "type": "bytes32"
        },
        {
          "internalType": "address",
          "name": "account",
          "type": "address"
        }
      ],
      "name": "revokeRole",
      "outputs": [],
      "stateMutability": "nonpayable",
      "type": "function"
    },
    {
      "inputs": [
        {
          "internalType": "address",
          "name": "from",
          "type": "address"
        },
        {
          "internalType": "address",
          "name": "to",
          "type": "address"
        },
        {
          "internalType": "uint256",
          "name": "tokenId",
          "type": "uint256"
        }
      ],
      "name": "safeTransferFrom",
      "outputs": [],
      "stateMutability": "nonpayable",
      "type": "function"
    },
    {
      "inputs": [
        {
          "internalType": "address",
          "name": "from",
          "type": "address"
        },
        {
          "internalType": "address",
          "name": "to",
          "type": "address"
        },
        {
          "internalType": "uint256",
          "name": "tokenId",
          "type": "uint256"
        },
        {
          "internalType": "bytes",
          "name": "_data",
          "type": "bytes"
        }
      ],
      "name": "safeTransferFrom",
      "outputs": [],
      "stateMutability": "nonpayable",
      "type": "function"
    },
    {
      "inputs": [
        {
          "internalType": "address",
          "name": "operator",
          "type": "address"
        },
        {
          "internalType": "bool",
          "name": "approved",
          "type": "bool"
        }
      ],
      "name": "setApprovalForAll",
      "outputs": [],
      "stateMutability": "nonpayable",
      "type": "function"
    },
    {
      "inputs": [
        {
          "internalType": "bytes4",
          "name": "interfaceId",
          "type": "bytes4"
        }
      ],
      "name": "supportsInterface",
      "outputs": [
        {
          "internalType": "bool",
          "name": "",
          "type": "bool"
        }
      ],
      "stateMutability": "view",
      "type": "function"
    },
    {
      "inputs": [],
      "name": "symbol",
      "outputs": [
        {
          "internalType": "string",
          "name": "",
          "type": "string"
        }
      ],
      "stateMutability": "view",
      "type": "function"
    },
    {
      "inputs": [
        {
          "internalType": "uint256",
          "name": "index",
          "type": "uint256"
        }
      ],
      "name": "tokenByIndex",
      "outputs": [
        {
          "internalType": "uint256",
          "name": "",
          "type": "uint256"
        }
      ],
      "stateMutability": "view",
      "type": "function"
    },
    {
      "inputs": [
        {
          "internalType": "address",
          "name": "owner",
          "type": "address"
        },
        {
          "internalType": "uint256",
          "name": "index",
          "type": "uint256"
        }
      ],
      "name": "tokenOfOwnerByIndex",
      "outputs": [
        {
          "internalType": "uint256",
          "name": "",
          "type": "uint256"
        }
      ],
      "stateMutability": "view",
      "type": "function"
    },
    {
      "inputs": [
        {
          "internalType": "uint256",
          "name": "tokenId",
          "type": "uint256"
        }
      ],
      "name": "tokenURI",
      "outputs": [
        {
          "internalType": "string",
          "name": "",
          "type": "string"
        }
      ],
      "stateMutability": "view",
      "type": "function"
    },
    {
      "inputs": [],
      "name": "totalSupply",
      "outputs": [
        {
          "internalType": "uint256",
          "name": "",
          "type": "uint256"
        }
      ],
      "stateMutability": "view",
      "type": "function"
    },
    {
      "inputs": [
        {
          "internalType": "address",
          "name": "from",
          "type": "address"
        },
        {
          "internalType": "address",
          "name": "to",
          "type": "address"
        },
        {
          "internalType": "uint256",
          "name": "tokenId",
          "type": "uint256"
        }
      ],
      "name": "transferFrom",
      "outputs": [],
      "stateMutability": "nonpayable",
      "type": "function"
    },
    {
      "inputs": [],
      "name": "unpause",
      "outputs": [],
      "stateMutability": "nonpayable",
      "type": "function"
    }
  ],
  "bytecode": "0x60806040523480156200001157600080fd5b5060405162005f2f38038062005f2f8339818101604052810190620000379190620005eb565b8888816002908051906020019062000051929190620004b2565b5080600390805190602001906200006a929190620004b2565b5050506000600c60006101000a81548160ff02191690831515021790555086600d9080519060200190620000a0929190620004b2565b50620000c56000801b620000b96200021c60201b60201c565b6200022460201b60201c565b620001067f9f2df0fed2c77648de5860a4cc508cd0818c85b8b8a1ab4ceeef8d981c8956a6620000fa6200021c60201b60201c565b6200022460201b60201c565b620001477f65d7a28e3265b37a6474929f336521b332c1681b933f6cb9f3376673440d862a6200013b6200021c60201b60201c565b6200022460201b60201c565b85600f600001908051906020019062000162929190620004b2565b5084600f60010190805190602001906200017e929190620004b2565b5083600f60020160006101000a81548160ff02191690831515021790555082600f6003019080519060200190620001b7929190620004b2565b5081600f60040160006101000a81548160ff02191690831515021790555086600f6005019080519060200190620001f0929190620004b2565b5080600f60060190805190602001906200020c929190620004b2565b50505050505050505050620008ca565b600033905090565b6200023b82826200026c60201b62001ec41760201c565b6200026781600160008581526020019081526020016000206200028260201b62001ed21790919060201c565b505050565b6200027e8282620002ba60201b60201c565b5050565b6000620002b2836000018373ffffffffffffffffffffffffffffffffffffffff1660001b620003ab60201b60201c565b905092915050565b620002cc82826200042560201b60201c565b620003a757600160008084815260200190815260200160002060000160008373ffffffffffffffffffffffffffffffffffffffff1673ffffffffffffffffffffffffffffffffffffffff16815260200190815260200160002060006101000a81548160ff0219169083151502179055506200034c6200021c60201b60201c565b73ffffffffffffffffffffffffffffffffffffffff168173ffffffffffffffffffffffffffffffffffffffff16837f2f8788117e7eff1d82e926ec794901d17c78024a50270940304540a733656f0d60405160405180910390a45b5050565b6000620003bf83836200048f60201b60201c565b6200041a5782600001829080600181540180825580915050600190039060005260206000200160009091909190915055826000018054905083600101600084815260200190815260200160002081905550600190506200041f565b600090505b92915050565b600080600084815260200190815260200160002060000160008373ffffffffffffffffffffffffffffffffffffffff1673ffffffffffffffffffffffffffffffffffffffff16815260200190815260200160002060009054906101000a900460ff16905092915050565b600080836001016000848152602001908152602001600020541415905092915050565b828054620004c0906200081c565b90600052602060002090601f016020900481019282620004e4576000855562000530565b82601f10620004ff57805160ff191683800117855562000530565b8280016001018555821562000530579182015b828111156200052f57825182559160200191906001019062000512565b5b5090506200053f919062000543565b5090565b5b808211156200055e57600081600090555060010162000544565b5090565b6000620005796200057384620007a7565b62000773565b9050828152602081018484840111156200059257600080fd5b6200059f848285620007e6565b509392505050565b600081519050620005b881620008b0565b92915050565b600082601f830112620005d057600080fd5b8151620005e284826020860162000562565b91505092915050565b60008060008060008060008060006101208a8c0312156200060b57600080fd5b60008a015167ffffffffffffffff8111156200062657600080fd5b620006348c828d01620005be565b99505060208a015167ffffffffffffffff8111156200065257600080fd5b620006608c828d01620005be565b98505060408a015167ffffffffffffffff8111156200067e57600080fd5b6200068c8c828d01620005be565b97505060608a015167ffffffffffffffff811115620006aa57600080fd5b620006b88c828d01620005be565b96505060808a015167ffffffffffffffff811115620006d657600080fd5b620006e48c828d01620005be565b95505060a0620006f78c828d01620005a7565b94505060c08a015167ffffffffffffffff8111156200071557600080fd5b620007238c828d01620005be565b93505060e0620007368c828d01620005a7565b9250506101008a015167ffffffffffffffff8111156200075557600080fd5b620007638c828d01620005be565b9150509295985092959850929598565b6000604051905081810181811067ffffffffffffffff821117156200079d576200079c62000881565b5b8060405250919050565b600067ffffffffffffffff821115620007c557620007c462000881565b5b601f19601f8301169050602081019050919050565b60008115159050919050565b60005b8381101562000806578082015181840152602081019050620007e9565b8381111562000816576000848401525b50505050565b600060028204905060018216806200083557607f821691505b602082108114156200084c576200084b62000852565b5b50919050565b7f4e487b7100000000000000000000000000000000000000000000000000000000600052602260045260246000fd5b7f4e487b7100000000000000000000000000000000000000000000000000000000600052604160045260246000fd5b620008bb81620007da565b8114620008c757600080fd5b50565b61565580620008da6000396000f3fe608060405234801561001057600080fd5b50600436106102275760003560e01c80634f6ccce711610130578063a217fddf116100b8578063ca15c8731161007c578063ca15c87314610679578063d5391393146106a9578063d547741f146106c7578063e63ab1e9146106e3578063e985e9c51461070157610227565b8063a217fddf146105d7578063a22cb465146105f5578063a90e66b714610611578063b88d4fde1461062d578063c87b56dd1461064957610227565b806375ceb341116100ff57806375ceb341146105335780638456cb591461054f5780639010d07c1461055957806391d148541461058957806395d89b41146105b957610227565b80634f6ccce7146104855780635c975abb146104b55780636352211e146104d357806370a082311461050357610227565b80632f745c59116101b35780633f4ba83a116101825780633f4ba83a146103f457806340c10f19146103fe57806342842e0e1461041a57806342966c681461043657806348b61d151461045257610227565b80632f745c591461036857806336568abe1461039857806339ccd77c146103b45780633cffda01146103d857610227565b806311831184116101fa57806311831184146102c657806318160ddd146102e257806323b872dd14610300578063248a9ca31461031c5780632f2ff15d1461034c57610227565b806301ffc9a71461022c57806306fdde031461025c578063081812fc1461027a578063095ea7b3146102aa575b600080fd5b61024660048036038101906102419190614109565b610731565b6040516102539190614cf2565b60405180910390f35b610264610743565b6040516102719190614d28565b60405180910390f35b610294600480360381019061028f919061415b565b6107d5565b6040516102a19190614c8b565b60405180910390f35b6102c460048036038101906102bf9190613f43565b61085a565b005b6102e060048036038101906102db9190613e06565b610972565b005b6102ea610c06565b6040516102f7919061519d565b60405180910390f35b61031a60048036038101906103159190613ce8565b610c13565b005b61033660048036038101906103319190614068565b610c73565b6040516103439190614d0d565b60405180910390f35b61036660048036038101906103619190614091565b610c92565b005b610382600480360381019061037d9190613f43565b610cc6565b60405161038f919061519d565b60405180910390f35b6103b260048036038101906103ad9190614091565b610d6b565b005b6103bc610d9f565b6040516103cf9796959493929190614d4a565b60405180910390f35b6103f260048036038101906103ed9190613f7f565b6110bd565b005b6103fc6111eb565b005b61041860048036038101906104139190613f43565b611265565b005b610434600480360381019061042f9190613ce8565b6112e3565b005b610450600480360381019061044b919061415b565b611303565b005b61046c6004803603810190610467919061415b565b61135f565b60405161047c9493929190614ddc565b60405180910390f35b61049f600480360381019061049a919061415b565b6115fc565b6040516104ac919061519d565b60405180910390f35b6104bd611693565b6040516104ca9190614cf2565b60405180910390f35b6104ed60048036038101906104e8919061415b565b6116aa565b6040516104fa9190614c8b565b60405180910390f35b61051d60048036038101906105189190613c83565b61175c565b60405161052a919061519d565b60405180910390f35b61054d60048036038101906105489190613db2565b611814565b005b6105576118f8565b005b610573600480360381019061056e91906140cd565b611972565b6040516105809190614c8b565b60405180910390f35b6105a3600480360381019061059e9190614091565b6119a1565b6040516105b09190614cf2565b60405180910390f35b6105c1611a0b565b6040516105ce9190614d28565b60405180910390f35b6105df611a9d565b6040516105ec9190614d0d565b60405180910390f35b61060f600480360381019061060a9190613f07565b611aa4565b005b61062b6004803603810190610626919061415b565b611c25565b005b61064760048036038101906106429190613d37565b611c87565b005b610663600480360381019061065e919061415b565b611ce9565b6040516106709190614d28565b60405180910390f35b610693600480360381019061068e9190614068565b611d90565b6040516106a0919061519d565b60405180910390f35b6106b1611db4565b6040516106be9190614d0d565b60405180910390f35b6106e160048036038101906106dc9190614091565b611dd8565b005b6106eb611e0c565b6040516106f89190614d0d565b60405180910390f35b61071b60048036038101906107169190613cac565b611e30565b6040516107289190614cf2565b60405180910390f35b600061073c82611f02565b9050919050565b60606002805461075290615433565b80601f016020809104026020016040519081016040528092919081815260200182805461077e90615433565b80156107cb5780601f106107a0576101008083540402835291602001916107cb565b820191906000526020600020905b8154815290600101906020018083116107ae57829003601f168201915b5050505050905090565b60006107e082611f7c565b61081f576040517f08c379a00000000000000000000000000000000000000000000000000000000081526004016108169061505d565b60405180910390fd5b6006600083815260200190815260200160002060009054906101000a900473ffffffffffffffffffffffffffffffffffffffff169050919050565b6000610865826116aa565b90508073ffffffffffffffffffffffffffffffffffffffff168373ffffffffffffffffffffffffffffffffffffffff1614156108d6576040517f08c379a00000000000000000000000000000000000000000000000000000000081526004016108cd906150bd565b60405180910390fd5b8073ffffffffffffffffffffffffffffffffffffffff166108f5611fe8565b73ffffffffffffffffffffffffffffffffffffffff16148061092457506109238161091e611fe8565b611e30565b5b610963576040517f08c379a000000000000000000000000000000000000000000000000000000000815260040161095a90614fdd565b60405180910390fd5b61096d8383611ff0565b505050565b6109a37f9f2df0fed2c77648de5860a4cc508cd0818c85b8b8a1ab4ceeef8d981c8956a661099e611fe8565b6119a1565b6109e2576040517f08c379a00000000000000000000000000000000000000000000000000000000081526004016109d99061511d565b60405180910390fd5b60008551905060005b81811015610bfc5785600e6000898481518110610a31577f4e487b7100000000000000000000000000000000000000000000000000000000600052603260045260246000fd5b602002602001015181526020019081526020016000206000019080519060200190610a5d9291906139bc565b5084600e6000898481518110610a9c577f4e487b7100000000000000000000000000000000000000000000000000000000600052603260045260246000fd5b602002602001015181526020019081526020016000206001019080519060200190610ac89291906139bc565b5083600e6000898481518110610b07577f4e487b7100000000000000000000000000000000000000000000000000000000600052603260045260246000fd5b602002602001015181526020019081526020016000206002019080519060200190610b339291906139bc565b5082600e6000898481518110610b72577f4e487b7100000000000000000000000000000000000000000000000000000000600052603260045260246000fd5b602002602001015181526020019081526020016000206003019080519060200190610b9e9291906139bc565b50610be988888381518110610bdc577f4e487b7100000000000000000000000000000000000000000000000000000000600052603260045260246000fd5b60200260200101516120a9565b8080610bf490615465565b9150506109eb565b5050505050505050565b6000600a80549050905090565b610c24610c1e611fe8565b82612277565b610c63576040517f08c379a0000000000000000000000000000000000000000000000000000000008152600401610c5a906150dd565b60405180910390fd5b610c6e838383612355565b505050565b6000806000838152602001908152602001600020600101549050919050565b610c9c82826125b1565b610cc18160016000858152602001908152602001600020611ed290919063ffffffff16565b505050565b6000610cd18361175c565b8210610d12576040517f08c379a0000000000000000000000000000000000000000000000000000000008152600401610d0990614ebd565b60405180910390fd5b600860008473ffffffffffffffffffffffffffffffffffffffff1673ffffffffffffffffffffffffffffffffffffffff168152602001908152602001600020600083815260200190815260200160002054905092915050565b610d758282612617565b610d9a816001600085815260200190815260200160002061269a90919063ffffffff16565b505050565b606080600060606000606080600f600001600f600101600f60020160009054906101000a900460ff16600f600301600f60040160009054906101000a900460ff16600f600501600f600601868054610df690615433565b80601f0160208091040260200160405190810160405280929190818152602001828054610e2290615433565b8015610e6f5780601f10610e4457610100808354040283529160200191610e6f565b820191906000526020600020905b815481529060010190602001808311610e5257829003601f168201915b50505050509650858054610e8290615433565b80601f0160208091040260200160405190810160405280929190818152602001828054610eae90615433565b8015610efb5780601f10610ed057610100808354040283529160200191610efb565b820191906000526020600020905b815481529060010190602001808311610ede57829003601f168201915b50505050509550838054610f0e90615433565b80601f0160208091040260200160405190810160405280929190818152602001828054610f3a90615433565b8015610f875780601f10610f5c57610100808354040283529160200191610f87565b820191906000526020600020905b815481529060010190602001808311610f6a57829003601f168201915b50505050509350818054610f9a90615433565b80601f0160208091040260200160405190810160405280929190818152602001828054610fc690615433565b80156110135780601f10610fe857610100808354040283529160200191611013565b820191906000526020600020905b815481529060010190602001808311610ff657829003601f168201915b5050505050915080805461102690615433565b80601f016020809104026020016040519081016040528092919081815260200182805461105290615433565b801561109f5780601f106110745761010080835404028352916020019161109f565b820191906000526020600020905b81548152906001019060200180831161108257829003601f168201915b50505050509050965096509650965096509650965090919293949596565b6110ee7f9f2df0fed2c77648de5860a4cc508cd0818c85b8b8a1ab4ceeef8d981c8956a66110e9611fe8565b6119a1565b61112d576040517f08c379a00000000000000000000000000000000000000000000000000000000081526004016111249061511d565b60405180910390fd5b83600e600087815260200190815260200160002060000190805190602001906111579291906139bc565b5082600e600087815260200190815260200160002060010190805190602001906111829291906139bc565b5081600e600087815260200190815260200160002060020190805190602001906111ad9291906139bc565b5080600e600087815260200190815260200160002060030190805190602001906111d89291906139bc565b506111e386866120a9565b505050505050565b61121c7f65d7a28e3265b37a6474929f336521b332c1681b933f6cb9f3376673440d862a611217611fe8565b6119a1565b61125b576040517f08c379a00000000000000000000000000000000000000000000000000000000081526004016112529061515d565b60405180910390fd5b6112636126ca565b565b6112967f9f2df0fed2c77648de5860a4cc508cd0818c85b8b8a1ab4ceeef8d981c8956a6611291611fe8565b6119a1565b6112d5576040517f08c379a00000000000000000000000000000000000000000000000000000000081526004016112cc9061511d565b60405180910390fd5b6112df82826120a9565b5050565b6112fe83838360405180602001604052806000815250611c87565b505050565b61131461130e611fe8565b82612277565b611353576040517f08c379a000000000000000000000000000000000000000000000000000000000815260040161134a9061513d565b60405180910390fd5b61135c8161276c565b50565b606080606080600e6000868152602001908152602001600020600001600e6000878152602001908152602001600020600101600e6000888152602001908152602001600020600201600e60008981526020019081526020016000206003018380546113c990615433565b80601f01602080910402602001604051908101604052809291908181526020018280546113f590615433565b80156114425780601f1061141757610100808354040283529160200191611442565b820191906000526020600020905b81548152906001019060200180831161142557829003601f168201915b5050505050935082805461145590615433565b80601f016020809104026020016040519081016040528092919081815260200182805461148190615433565b80156114ce5780601f106114a3576101008083540402835291602001916114ce565b820191906000526020600020905b8154815290600101906020018083116114b157829003601f168201915b505050505092508180546114e190615433565b80601f016020809104026020016040519081016040528092919081815260200182805461150d90615433565b801561155a5780601f1061152f5761010080835404028352916020019161155a565b820191906000526020600020905b81548152906001019060200180831161153d57829003601f168201915b5050505050915080805461156d90615433565b80601f016020809104026020016040519081016040528092919081815260200182805461159990615433565b80156115e65780601f106115bb576101008083540402835291602001916115e6565b820191906000526020600020905b8154815290600101906020018083116115c957829003601f168201915b5050505050905093509350935093509193509193565b6000611606610c06565b8210611647576040517f08c379a000000000000000000000000000000000000000000000000000000000815260040161163e906150fd565b60405180910390fd5b600a8281548110611681577f4e487b7100000000000000000000000000000000000000000000000000000000600052603260045260246000fd5b90600052602060002001549050919050565b6000600c60009054906101000a900460ff16905090565b6000806004600084815260200190815260200160002060009054906101000a900473ffffffffffffffffffffffffffffffffffffffff169050600073ffffffffffffffffffffffffffffffffffffffff168173ffffffffffffffffffffffffffffffffffffffff161415611753576040517f08c379a000000000000000000000000000000000000000000000000000000000815260040161174a9061501d565b60405180910390fd5b80915050919050565b60008073ffffffffffffffffffffffffffffffffffffffff168273ffffffffffffffffffffffffffffffffffffffff1614156117cd576040517f08c379a00000000000000000000000000000000000000000000000000000000081526004016117c490614ffd565b60405180910390fd5b600560008373ffffffffffffffffffffffffffffffffffffffff1673ffffffffffffffffffffffffffffffffffffffff168152602001908152602001600020549050919050565b6118457f9f2df0fed2c77648de5860a4cc508cd0818c85b8b8a1ab4ceeef8d981c8956a6611840611fe8565b6119a1565b611884576040517f08c379a000000000000000000000000000000000000000000000000000000000815260040161187b9061511d565b60405180910390fd5b60008151905060005b818110156118f2576118df848483815181106118d2577f4e487b7100000000000000000000000000000000000000000000000000000000600052603260045260246000fd5b60200260200101516120a9565b80806118ea90615465565b91505061188d565b50505050565b6119297f65d7a28e3265b37a6474929f336521b332c1681b933f6cb9f3376673440d862a611924611fe8565b6119a1565b611968576040517f08c379a000000000000000000000000000000000000000000000000000000000815260040161195f90614f1d565b60405180910390fd5b61197061287d565b565b6000611999826001600086815260200190815260200160002061292090919063ffffffff16565b905092915050565b600080600084815260200190815260200160002060000160008373ffffffffffffffffffffffffffffffffffffffff1673ffffffffffffffffffffffffffffffffffffffff16815260200190815260200160002060009054906101000a900460ff16905092915050565b606060038054611a1a90615433565b80601f0160208091040260200160405190810160405280929190818152602001828054611a4690615433565b8015611a935780601f10611a6857610100808354040283529160200191611a93565b820191906000526020600020905b815481529060010190602001808311611a7657829003601f168201915b5050505050905090565b6000801b81565b611aac611fe8565b73ffffffffffffffffffffffffffffffffffffffff168273ffffffffffffffffffffffffffffffffffffffff161415611b1a576040517f08c379a0000000000000000000000000000000000000000000000000000000008152600401611b1190614f5d565b60405180910390fd5b8060076000611b27611fe8565b73ffffffffffffffffffffffffffffffffffffffff1673ffffffffffffffffffffffffffffffffffffffff16815260200190815260200160002060008473ffffffffffffffffffffffffffffffffffffffff1673ffffffffffffffffffffffffffffffffffffffff16815260200190815260200160002060006101000a81548160ff0219169083151502179055508173ffffffffffffffffffffffffffffffffffffffff16611bd4611fe8565b73ffffffffffffffffffffffffffffffffffffffff167f17307eab39ab6107e8899845ad3d59bd9653f200f220920489ca2b5937696c3183604051611c199190614cf2565b60405180910390a35050565b611c2e81611303565b600e600082815260200190815260200160002060008082016000611c529190613a42565b600182016000611c629190613a42565b600282016000611c729190613a42565b600382016000611c829190613a42565b505050565b611c98611c92611fe8565b83612277565b611cd7576040517f08c379a0000000000000000000000000000000000000000000000000000000008152600401611cce906150dd565b60405180910390fd5b611ce38484848461293a565b50505050565b6060611cf482611f7c565b611d33576040517f08c379a0000000000000000000000000000000000000000000000000000000008152600401611d2a9061509d565b60405180910390fd5b6000611d3d612996565b90506000815111611d5d5760405180602001604052806000815250611d88565b80611d6784612a28565b604051602001611d78929190614c67565b6040516020818303038152906040525b915050919050565b6000611dad60016000848152602001908152602001600020612bd5565b9050919050565b7f9f2df0fed2c77648de5860a4cc508cd0818c85b8b8a1ab4ceeef8d981c8956a681565b611de28282612bea565b611e07816001600085815260200190815260200160002061269a90919063ffffffff16565b505050565b7f65d7a28e3265b37a6474929f336521b332c1681b933f6cb9f3376673440d862a81565b6000600760008473ffffffffffffffffffffffffffffffffffffffff1673ffffffffffffffffffffffffffffffffffffffff16815260200190815260200160002060008373ffffffffffffffffffffffffffffffffffffffff1673ffffffffffffffffffffffffffffffffffffffff16815260200190815260200160002060009054906101000a900460ff16905092915050565b611ece8282612c50565b5050565b6000611efa836000018373ffffffffffffffffffffffffffffffffffffffff1660001b612d30565b905092915050565b60007f780e9d63000000000000000000000000000000000000000000000000000000007bffffffffffffffffffffffffffffffffffffffffffffffffffffffff1916827bffffffffffffffffffffffffffffffffffffffffffffffffffffffff19161480611f755750611f7482612da0565b5b9050919050565b60008073ffffffffffffffffffffffffffffffffffffffff166004600084815260200190815260200160002060009054906101000a900473ffffffffffffffffffffffffffffffffffffffff1673ffffffffffffffffffffffffffffffffffffffff1614159050919050565b600033905090565b816006600083815260200190815260200160002060006101000a81548173ffffffffffffffffffffffffffffffffffffffff021916908373ffffffffffffffffffffffffffffffffffffffff160217905550808273ffffffffffffffffffffffffffffffffffffffff16612063836116aa565b73ffffffffffffffffffffffffffffffffffffffff167f8c5be1e5ebec7d5bd14f71427d1e84f3dd0314c0f7b2291e5b200ac8c7c3b92560405160405180910390a45050565b600073ffffffffffffffffffffffffffffffffffffffff168273ffffffffffffffffffffffffffffffffffffffff161415612119576040517f08c379a00000000000000000000000000000000000000000000000000000000081526004016121109061503d565b60405180910390fd5b61212281611f7c565b15612162576040517f08c379a000000000000000000000000000000000000000000000000000000000815260040161215990614efd565b60405180910390fd5b61216e60008383612e82565b6001600560008473ffffffffffffffffffffffffffffffffffffffff1673ffffffffffffffffffffffffffffffffffffffff16815260200190815260200160002060008282546121be91906152b8565b92505081905550816004600083815260200190815260200160002060006101000a81548173ffffffffffffffffffffffffffffffffffffffff021916908373ffffffffffffffffffffffffffffffffffffffff160217905550808273ffffffffffffffffffffffffffffffffffffffff16600073ffffffffffffffffffffffffffffffffffffffff167fddf252ad1be2c89b69c2b068fc378daa952ba7f163c4a11628f55a4df523b3ef60405160405180910390a45050565b600061228282611f7c565b6122c1576040517f08c379a00000000000000000000000000000000000000000000000000000000081526004016122b890614f7d565b60405180910390fd5b60006122cc836116aa565b90508073ffffffffffffffffffffffffffffffffffffffff168473ffffffffffffffffffffffffffffffffffffffff16148061233b57508373ffffffffffffffffffffffffffffffffffffffff16612323846107d5565b73ffffffffffffffffffffffffffffffffffffffff16145b8061234c575061234b8185611e30565b5b91505092915050565b8273ffffffffffffffffffffffffffffffffffffffff16612375826116aa565b73ffffffffffffffffffffffffffffffffffffffff16146123cb576040517f08c379a00000000000000000000000000000000000000000000000000000000081526004016123c29061507d565b60405180910390fd5b600073ffffffffffffffffffffffffffffffffffffffff168273ffffffffffffffffffffffffffffffffffffffff16141561243b576040517f08c379a000000000000000000000000000000000000000000000000000000000815260040161243290614f3d565b60405180910390fd5b612446838383612e82565b612451600082611ff0565b6001600560008573ffffffffffffffffffffffffffffffffffffffff1673ffffffffffffffffffffffffffffffffffffffff16815260200190815260200160002060008282546124a1919061533f565b925050819055506001600560008473ffffffffffffffffffffffffffffffffffffffff1673ffffffffffffffffffffffffffffffffffffffff16815260200190815260200160002060008282546124f891906152b8565b92505081905550816004600083815260200190815260200160002060006101000a81548173ffffffffffffffffffffffffffffffffffffffff021916908373ffffffffffffffffffffffffffffffffffffffff160217905550808273ffffffffffffffffffffffffffffffffffffffff168473ffffffffffffffffffffffffffffffffffffffff167fddf252ad1be2c89b69c2b068fc378daa952ba7f163c4a11628f55a4df523b3ef60405160405180910390a4505050565b6125ca6125bd83610c73565b6125c5611fe8565b6119a1565b612609576040517f08c379a000000000000000000000000000000000000000000000000000000000815260040161260090614e7d565b60405180910390fd5b6126138282612c50565b5050565b61261f611fe8565b73ffffffffffffffffffffffffffffffffffffffff168173ffffffffffffffffffffffffffffffffffffffff161461268c576040517f08c379a00000000000000000000000000000000000000000000000000000000081526004016126839061517d565b60405180910390fd5b6126968282612e92565b5050565b60006126c2836000018373ffffffffffffffffffffffffffffffffffffffff1660001b612f73565b905092915050565b6126d2611693565b612711576040517f08c379a000000000000000000000000000000000000000000000000000000000815260040161270890614e9d565b60405180910390fd5b6000600c60006101000a81548160ff0219169083151502179055507f5db9ee0a495bf2e6ff9c91a7834c1ba4fdd244a5e8aa4e537bd38aeae4b073aa612755611fe8565b6040516127629190614c8b565b60405180910390a1565b6000612777826116aa565b905061278581600084612e82565b612790600083611ff0565b6001600560008373ffffffffffffffffffffffffffffffffffffffff1673ffffffffffffffffffffffffffffffffffffffff16815260200190815260200160002060008282546127e0919061533f565b925050819055506004600083815260200190815260200160002060006101000a81549073ffffffffffffffffffffffffffffffffffffffff021916905581600073ffffffffffffffffffffffffffffffffffffffff168273ffffffffffffffffffffffffffffffffffffffff167fddf252ad1be2c89b69c2b068fc378daa952ba7f163c4a11628f55a4df523b3ef60405160405180910390a45050565b612885611693565b156128c5576040517f08c379a00000000000000000000000000000000000000000000000000000000081526004016128bc90614fbd565b60405180910390fd5b6001600c60006101000a81548160ff0219169083151502179055507f62e78cea01bee320cd4e420270b5ea74000d11b0c9f74754ebdbfc544b05a258612909611fe8565b6040516129169190614c8b565b60405180910390a1565b600061292f83600001836130fd565b60001c905092915050565b612945848484612355565b61295184848484613197565b612990576040517f08c379a000000000000000000000000000000000000000000000000000000000815260040161298790614edd565b60405180910390fd5b50505050565b6060600d80546129a590615433565b80601f01602080910402602001604051908101604052809291908181526020018280546129d190615433565b8015612a1e5780601f106129f357610100808354040283529160200191612a1e565b820191906000526020600020905b815481529060010190602001808311612a0157829003601f168201915b5050505050905090565b60606000821415612a70576040518060400160405280600181526020017f30000000000000000000000000000000000000000000000000000000000000008152509050612bd0565b600082905060005b60008214612aa2578080612a8b90615465565b915050600a82612a9b919061530e565b9150612a78565b60008167ffffffffffffffff811115612ae4577f4e487b7100000000000000000000000000000000000000000000000000000000600052604160045260246000fd5b6040519080825280601f01601f191660200182016040528015612b165781602001600182028036833780820191505090505b5090505b60008514612bc957600182612b2f919061533f565b9150600a85612b3e91906154ae565b6030612b4a91906152b8565b60f81b818381518110612b86577f4e487b7100000000000000000000000000000000000000000000000000000000600052603260045260246000fd5b60200101907effffffffffffffffffffffffffffffffffffffffffffffffffffffffffffff1916908160001a905350600a85612bc2919061530e565b9450612b1a565b8093505050505b919050565b6000612be38260000161332e565b9050919050565b612c03612bf683610c73565b612bfe611fe8565b6119a1565b612c42576040517f08c379a0000000000000000000000000000000000000000000000000000000008152600401612c3990614f9d565b60405180910390fd5b612c4c8282612e92565b5050565b612c5a82826119a1565b612d2c57600160008084815260200190815260200160002060000160008373ffffffffffffffffffffffffffffffffffffffff1673ffffffffffffffffffffffffffffffffffffffff16815260200190815260200160002060006101000a81548160ff021916908315150217905550612cd1611fe8565b73ffffffffffffffffffffffffffffffffffffffff168173ffffffffffffffffffffffffffffffffffffffff16837f2f8788117e7eff1d82e926ec794901d17c78024a50270940304540a733656f0d60405160405180910390a45b5050565b6000612d3c838361333f565b612d95578260000182908060018154018082558091505060019003906000526020600020016000909190919091505582600001805490508360010160008481526020019081526020016000208190555060019050612d9a565b600090505b92915050565b60007f80ac58cd000000000000000000000000000000000000000000000000000000007bffffffffffffffffffffffffffffffffffffffffffffffffffffffff1916827bffffffffffffffffffffffffffffffffffffffffffffffffffffffff19161480612e6b57507f5b5e139f000000000000000000000000000000000000000000000000000000007bffffffffffffffffffffffffffffffffffffffffffffffffffffffff1916827bffffffffffffffffffffffffffffffffffffffffffffffffffffffff1916145b80612e7b5750612e7a82613362565b5b9050919050565b612e8d8383836133dc565b505050565b612e9c82826119a1565b15612f6f57600080600084815260200190815260200160002060000160008373ffffffffffffffffffffffffffffffffffffffff1673ffffffffffffffffffffffffffffffffffffffff16815260200190815260200160002060006101000a81548160ff021916908315150217905550612f14611fe8565b73ffffffffffffffffffffffffffffffffffffffff168173ffffffffffffffffffffffffffffffffffffffff16837ff6391f5c32d9c69d2a47ea670b442974b53935d1edc7fd64eb21e047a839171b60405160405180910390a45b5050565b600080836001016000848152602001908152602001600020549050600081146130f1576000600182612fa5919061533f565b9050600060018660000180549050612fbd919061533f565b90506000866000018281548110612ffd577f4e487b7100000000000000000000000000000000000000000000000000000000600052603260045260246000fd5b9060005260206000200154905080876000018481548110613047577f4e487b7100000000000000000000000000000000000000000000000000000000600052603260045260246000fd5b906000526020600020018190555060018361306291906152b8565b87600101600083815260200190815260200160002081905550866000018054806130b5577f4e487b7100000000000000000000000000000000000000000000000000000000600052603160045260246000fd5b600190038181906000526020600020016000905590558660010160008781526020019081526020016000206000905560019450505050506130f7565b60009150505b92915050565b600081836000018054905011613148576040517f08c379a000000000000000000000000000000000000000000000000000000000815260040161313f90614e3d565b60405180910390fd5b826000018281548110613184577f4e487b7100000000000000000000000000000000000000000000000000000000600052603260045260246000fd5b9060005260206000200154905092915050565b60006131b88473ffffffffffffffffffffffffffffffffffffffff16613434565b15613321578373ffffffffffffffffffffffffffffffffffffffff1663150b7a026131e1611fe8565b8786866040518563ffffffff1660e01b81526004016132039493929190614ca6565b602060405180830381600087803b15801561321d57600080fd5b505af192505050801561324e57506040513d601f19601f8201168201806040525081019061324b9190614132565b60015b6132d1573d806000811461327e576040519150601f19603f3d011682016040523d82523d6000602084013e613283565b606091505b506000815114156132c9576040517f08c379a00000000000000000000000000000000000000000000000000000000081526004016132c090614edd565b60405180910390fd5b805181602001fd5b63150b7a0260e01b7bffffffffffffffffffffffffffffffffffffffffffffffffffffffff1916817bffffffffffffffffffffffffffffffffffffffffffffffffffffffff191614915050613326565b600190505b949350505050565b600081600001805490509050919050565b600080836001016000848152602001908152602001600020541415905092915050565b60007f5a05180f000000000000000000000000000000000000000000000000000000007bffffffffffffffffffffffffffffffffffffffffffffffffffffffff1916827bffffffffffffffffffffffffffffffffffffffffffffffffffffffff191614806133d557506133d482613447565b5b9050919050565b6133e78383836134c1565b6133ef611693565b1561342f576040517f08c379a000000000000000000000000000000000000000000000000000000000815260040161342690614e5d565b60405180910390fd5b505050565b600080823b905060008111915050919050565b60007f7965db0b000000000000000000000000000000000000000000000000000000007bffffffffffffffffffffffffffffffffffffffffffffffffffffffff1916827bffffffffffffffffffffffffffffffffffffffffffffffffffffffff191614806134ba57506134b9826135d5565b5b9050919050565b6134cc83838361363f565b600073ffffffffffffffffffffffffffffffffffffffff168373ffffffffffffffffffffffffffffffffffffffff16141561350f5761350a81613644565b61354e565b8173ffffffffffffffffffffffffffffffffffffffff168373ffffffffffffffffffffffffffffffffffffffff161461354d5761354c838261368d565b5b5b600073ffffffffffffffffffffffffffffffffffffffff168273ffffffffffffffffffffffffffffffffffffffff1614156135915761358c816137fa565b6135d0565b8273ffffffffffffffffffffffffffffffffffffffff168273ffffffffffffffffffffffffffffffffffffffff16146135cf576135ce828261393d565b5b5b505050565b60007f01ffc9a7000000000000000000000000000000000000000000000000000000007bffffffffffffffffffffffffffffffffffffffffffffffffffffffff1916827bffffffffffffffffffffffffffffffffffffffffffffffffffffffff1916149050919050565b505050565b600a80549050600b600083815260200190815260200160002081905550600a81908060018154018082558091505060019003906000526020600020016000909190919091505550565b6000600161369a8461175c565b6136a4919061533f565b9050600060096000848152602001908152602001600020549050818114613789576000600860008673ffffffffffffffffffffffffffffffffffffffff1673ffffffffffffffffffffffffffffffffffffffff168152602001908152602001600020600084815260200190815260200160002054905080600860008773ffffffffffffffffffffffffffffffffffffffff1673ffffffffffffffffffffffffffffffffffffffff168152602001908152602001600020600084815260200190815260200160002081905550816009600083815260200190815260200160002081905550505b6009600084815260200190815260200160002060009055600860008573ffffffffffffffffffffffffffffffffffffffff1673ffffffffffffffffffffffffffffffffffffffff16815260200190815260200160002060008381526020019081526020016000206000905550505050565b60006001600a8054905061380e919061533f565b90506000600b60008481526020019081526020016000205490506000600a8381548110613864577f4e487b7100000000000000000000000000000000000000000000000000000000600052603260045260246000fd5b9060005260206000200154905080600a83815481106138ac577f4e487b7100000000000000000000000000000000000000000000000000000000600052603260045260246000fd5b906000526020600020018190555081600b600083815260200190815260200160002081905550600b600085815260200190815260200160002060009055600a805480613921577f4e487b7100000000000000000000000000000000000000000000000000000000600052603160045260246000fd5b6001900381819060005260206000200160009055905550505050565b60006139488361175c565b905081600860008573ffffffffffffffffffffffffffffffffffffffff1673ffffffffffffffffffffffffffffffffffffffff168152602001908152602001600020600083815260200190815260200160002081905550806009600084815260200190815260200160002081905550505050565b8280546139c890615433565b90600052602060002090601f0160209004810192826139ea5760008555613a31565b82601f10613a0357805160ff1916838001178555613a31565b82800160010185558215613a31579182015b82811115613a30578251825591602001919060010190613a15565b5b509050613a3e9190613a82565b5090565b508054613a4e90615433565b6000825580601f10613a605750613a7f565b601f016020900490600052602060002090810190613a7e9190613a82565b5b50565b5b80821115613a9b576000816000905550600101613a83565b5090565b6000613ab2613aad846151e9565b6151b8565b90508083825260208201905082856020860282011115613ad157600080fd5b60005b85811015613b015781613ae78882613c6e565b845260208401935060208301925050600181019050613ad4565b5050509392505050565b6000613b1e613b1984615215565b6151b8565b905082815260208101848484011115613b3657600080fd5b613b418482856153f1565b509392505050565b6000613b5c613b5784615245565b6151b8565b905082815260208101848484011115613b7457600080fd5b613b7f8482856153f1565b509392505050565b600081359050613b96816155ac565b92915050565b600082601f830112613bad57600080fd5b8135613bbd848260208601613a9f565b91505092915050565b600081359050613bd5816155c3565b92915050565b600081359050613bea816155da565b92915050565b600081359050613bff816155f1565b92915050565b600081519050613c14816155f1565b92915050565b600082601f830112613c2b57600080fd5b8135613c3b848260208601613b0b565b91505092915050565b600082601f830112613c5557600080fd5b8135613c65848260208601613b49565b91505092915050565b600081359050613c7d81615608565b92915050565b600060208284031215613c9557600080fd5b6000613ca384828501613b87565b91505092915050565b60008060408385031215613cbf57600080fd5b6000613ccd85828601613b87565b9250506020613cde85828601613b87565b9150509250929050565b600080600060608486031215613cfd57600080fd5b6000613d0b86828701613b87565b9350506020613d1c86828701613b87565b9250506040613d2d86828701613c6e565b9150509250925092565b60008060008060808587031215613d4d57600080fd5b6000613d5b87828801613b87565b9450506020613d6c87828801613b87565b9350506040613d7d87828801613c6e565b925050606085013567ffffffffffffffff811115613d9a57600080fd5b613da687828801613c1a565b91505092959194509250565b60008060408385031215613dc557600080fd5b6000613dd385828601613b87565b925050602083013567ffffffffffffffff811115613df057600080fd5b613dfc85828601613b9c565b9150509250929050565b60008060008060008060c08789031215613e1f57600080fd5b6000613e2d89828a01613b87565b965050602087013567ffffffffffffffff811115613e4a57600080fd5b613e5689828a01613b9c565b955050604087013567ffffffffffffffff811115613e7357600080fd5b613e7f89828a01613c44565b945050606087013567ffffffffffffffff811115613e9c57600080fd5b613ea889828a01613c44565b935050608087013567ffffffffffffffff811115613ec557600080fd5b613ed189828a01613c44565b92505060a087013567ffffffffffffffff811115613eee57600080fd5b613efa89828a01613c44565b9150509295509295509295565b60008060408385031215613f1a57600080fd5b6000613f2885828601613b87565b9250506020613f3985828601613bc6565b9150509250929050565b60008060408385031215613f5657600080fd5b6000613f6485828601613b87565b9250506020613f7585828601613c6e565b9150509250929050565b60008060008060008060c08789031215613f9857600080fd5b6000613fa689828a01613b87565b9650506020613fb789828a01613c6e565b955050604087013567ffffffffffffffff811115613fd457600080fd5b613fe089828a01613c44565b945050606087013567ffffffffffffffff811115613ffd57600080fd5b61400989828a01613c44565b935050608087013567ffffffffffffffff81111561402657600080fd5b61403289828a01613c44565b92505060a087013567ffffffffffffffff81111561404f57600080fd5b61405b89828a01613c44565b9150509295509295509295565b60006020828403121561407a57600080fd5b600061408884828501613bdb565b91505092915050565b600080604083850312156140a457600080fd5b60006140b285828601613bdb565b92505060206140c385828601613b87565b9150509250929050565b600080604083850312156140e057600080fd5b60006140ee85828601613bdb565b92505060206140ff85828601613c6e565b9150509250929050565b60006020828403121561411b57600080fd5b600061412984828501613bf0565b91505092915050565b60006020828403121561414457600080fd5b600061415284828501613c05565b91505092915050565b60006020828403121561416d57600080fd5b600061417b84828501613c6e565b91505092915050565b61418d81615373565b82525050565b61419c81615385565b82525050565b6141ab81615391565b82525050565b60006141bc82615275565b6141c6818561528b565b93506141d6818560208601615400565b6141df8161559b565b840191505092915050565b60006141f582615280565b6141ff818561529c565b935061420f818560208601615400565b6142188161559b565b840191505092915050565b600061422e82615280565b61423881856152ad565b9350614248818560208601615400565b80840191505092915050565b600061426160228361529c565b91507f456e756d657261626c655365743a20696e646578206f7574206f6620626f756e60008301527f64730000000000000000000000000000000000000000000000000000000000006020830152604082019050919050565b60006142c7602b8361529c565b91507f4552433732315061757361626c653a20746f6b656e207472616e73666572207760008301527f68696c65207061757365640000000000000000000000000000000000000000006020830152604082019050919050565b600061432d602f8361529c565b91507f416363657373436f6e74726f6c3a2073656e646572206d75737420626520616e60008301527f2061646d696e20746f206772616e7400000000000000000000000000000000006020830152604082019050919050565b600061439360148361529c565b91507f5061757361626c653a206e6f74207061757365640000000000000000000000006000830152602082019050919050565b60006143d3602b8361529c565b91507f455243373231456e756d657261626c653a206f776e657220696e646578206f7560008301527f74206f6620626f756e64730000000000000000000000000000000000000000006020830152604082019050919050565b600061443960328361529c565b91507f4552433732313a207472616e7366657220746f206e6f6e20455243373231526560008301527f63656976657220696d706c656d656e74657200000000000000000000000000006020830152604082019050919050565b600061449f601c8361529c565b91507f4552433732313a20746f6b656e20616c7265616479206d696e746564000000006000830152602082019050919050565b60006144df603e8361529c565b91507f4552433732315072657365744d696e7465725061757365724175746f49643a2060008301527f6d75737420686176652070617573657220726f6c6520746f20706175736500006020830152604082019050919050565b600061454560248361529c565b91507f4552433732313a207472616e7366657220746f20746865207a65726f2061646460008301527f72657373000000000000000000000000000000000000000000000000000000006020830152604082019050919050565b60006145ab60198361529c565b91507f4552433732313a20617070726f766520746f2063616c6c6572000000000000006000830152602082019050919050565b60006145eb602c8361529c565b91507f4552433732313a206f70657261746f7220717565727920666f72206e6f6e657860008301527f697374656e7420746f6b656e00000000000000000000000000000000000000006020830152604082019050919050565b600061465160308361529c565b91507f416363657373436f6e74726f6c3a2073656e646572206d75737420626520616e60008301527f2061646d696e20746f207265766f6b65000000000000000000000000000000006020830152604082019050919050565b60006146b760108361529c565b91507f5061757361626c653a20706175736564000000000000000000000000000000006000830152602082019050919050565b60006146f760388361529c565b91507f4552433732313a20617070726f76652063616c6c6572206973206e6f74206f7760008301527f6e6572206e6f7220617070726f76656420666f7220616c6c00000000000000006020830152604082019050919050565b600061475d602a8361529c565b91507f4552433732313a2062616c616e636520717565727920666f7220746865207a6560008301527f726f2061646472657373000000000000000000000000000000000000000000006020830152604082019050919050565b60006147c360298361529c565b91507f4552433732313a206f776e657220717565727920666f72206e6f6e657869737460008301527f656e7420746f6b656e00000000000000000000000000000000000000000000006020830152604082019050919050565b600061482960208361529c565b91507f4552433732313a206d696e7420746f20746865207a65726f20616464726573736000830152602082019050919050565b6000614869602c8361529c565b91507f4552433732313a20617070726f76656420717565727920666f72206e6f6e657860008301527f697374656e7420746f6b656e00000000000000000000000000000000000000006020830152604082019050919050565b60006148cf60298361529c565b91507f4552433732313a207472616e73666572206f6620746f6b656e2074686174206960008301527f73206e6f74206f776e00000000000000000000000000000000000000000000006020830152604082019050919050565b6000614935602f8361529c565b91507f4552433732314d657461646174613a2055524920717565727920666f72206e6f60008301527f6e6578697374656e7420746f6b656e00000000000000000000000000000000006020830152604082019050919050565b600061499b60218361529c565b91507f4552433732313a20617070726f76616c20746f2063757272656e74206f776e6560008301527f72000000000000000000000000000000000000000000000000000000000000006020830152604082019050919050565b6000614a0160318361529c565b91507f4552433732313a207472616e736665722063616c6c6572206973206e6f74206f60008301527f776e6572206e6f7220617070726f7665640000000000000000000000000000006020830152604082019050919050565b6000614a67602c8361529c565b91507f455243373231456e756d657261626c653a20676c6f62616c20696e646578206f60008301527f7574206f6620626f756e647300000000000000000000000000000000000000006020830152604082019050919050565b6000614acd603d8361529c565b91507f4552433732315072657365744d696e7465725061757365724175746f49643a2060008301527f6d7573742068617665206d696e74657220726f6c6520746f206d696e740000006020830152604082019050919050565b6000614b3360308361529c565b91507f4552433732314275726e61626c653a2063616c6c6572206973206e6f74206f7760008301527f6e6572206e6f7220617070726f766564000000000000000000000000000000006020830152604082019050919050565b6000614b9960408361529c565b91507f4552433732315072657365744d696e7465725061757365724175746f49643a2060008301527f6d75737420686176652070617573657220726f6c6520746f20756e70617573656020830152604082019050919050565b6000614bff602f8361529c565b91507f416363657373436f6e74726f6c3a2063616e206f6e6c792072656e6f756e636560008301527f20726f6c657320666f722073656c6600000000000000000000000000000000006020830152604082019050919050565b614c61816153e7565b82525050565b6000614c738285614223565b9150614c7f8284614223565b91508190509392505050565b6000602082019050614ca06000830184614184565b92915050565b6000608082019050614cbb6000830187614184565b614cc86020830186614184565b614cd56040830185614c58565b8181036060830152614ce781846141b1565b905095945050505050565b6000602082019050614d076000830184614193565b92915050565b6000602082019050614d2260008301846141a2565b92915050565b60006020820190508181036000830152614d4281846141ea565b905092915050565b600060e0820190508181036000830152614d64818a6141ea565b90508181036020830152614d7881896141ea565b9050614d876040830188614193565b8181036060830152614d9981876141ea565b9050614da86080830186614193565b81810360a0830152614dba81856141ea565b905081810360c0830152614dce81846141ea565b905098975050505050505050565b60006080820190508181036000830152614df681876141ea565b90508181036020830152614e0a81866141ea565b90508181036040830152614e1e81856141ea565b90508181036060830152614e3281846141ea565b905095945050505050565b60006020820190508181036000830152614e5681614254565b9050919050565b60006020820190508181036000830152614e76816142ba565b9050919050565b60006020820190508181036000830152614e9681614320565b9050919050565b60006020820190508181036000830152614eb681614386565b9050919050565b60006020820190508181036000830152614ed6816143c6565b9050919050565b60006020820190508181036000830152614ef68161442c565b9050919050565b60006020820190508181036000830152614f1681614492565b9050919050565b60006020820190508181036000830152614f36816144d2565b9050919050565b60006020820190508181036000830152614f5681614538565b9050919050565b60006020820190508181036000830152614f768161459e565b9050919050565b60006020820190508181036000830152614f96816145de565b9050919050565b60006020820190508181036000830152614fb681614644565b9050919050565b60006020820190508181036000830152614fd6816146aa565b9050919050565b60006020820190508181036000830152614ff6816146ea565b9050919050565b6000602082019050818103600083015261501681614750565b9050919050565b60006020820190508181036000830152615036816147b6565b9050919050565b600060208201905081810360008301526150568161481c565b9050919050565b600060208201905081810360008301526150768161485c565b9050919050565b60006020820190508181036000830152615096816148c2565b9050919050565b600060208201905081810360008301526150b681614928565b9050919050565b600060208201905081810360008301526150d68161498e565b9050919050565b600060208201905081810360008301526150f6816149f4565b9050919050565b6000602082019050818103600083015261511681614a5a565b9050919050565b6000602082019050818103600083015261513681614ac0565b9050919050565b6000602082019050818103600083015261515681614b26565b9050919050565b6000602082019050818103600083015261517681614b8c565b9050919050565b6000602082019050818103600083015261519681614bf2565b9050919050565b60006020820190506151b26000830184614c58565b92915050565b6000604051905081810181811067ffffffffffffffff821117156151df576151de61556c565b5b8060405250919050565b600067ffffffffffffffff8211156152045761520361556c565b5b602082029050602081019050919050565b600067ffffffffffffffff8211156152305761522f61556c565b5b601f19601f8301169050602081019050919050565b600067ffffffffffffffff8211156152605761525f61556c565b5b601f19601f8301169050602081019050919050565b600081519050919050565b600081519050919050565b600082825260208201905092915050565b600082825260208201905092915050565b600081905092915050565b60006152c3826153e7565b91506152ce836153e7565b9250827fffffffffffffffffffffffffffffffffffffffffffffffffffffffffffffffff03821115615303576153026154df565b5b828201905092915050565b6000615319826153e7565b9150615324836153e7565b9250826153345761533361550e565b5b828204905092915050565b600061534a826153e7565b9150615355836153e7565b925082821015615368576153676154df565b5b828203905092915050565b600061537e826153c7565b9050919050565b60008115159050919050565b6000819050919050565b60007fffffffff0000000000000000000000000000000000000000000000000000000082169050919050565b600073ffffffffffffffffffffffffffffffffffffffff82169050919050565b6000819050919050565b82818337600083830152505050565b60005b8381101561541e578082015181840152602081019050615403565b8381111561542d576000848401525b50505050565b6000600282049050600182168061544b57607f821691505b6020821081141561545f5761545e61553d565b5b50919050565b6000615470826153e7565b91507fffffffffffffffffffffffffffffffffffffffffffffffffffffffffffffffff8214156154a3576154a26154df565b5b600182019050919050565b60006154b9826153e7565b91506154c4836153e7565b9250826154d4576154d361550e565b5b828206905092915050565b7f4e487b7100000000000000000000000000000000000000000000000000000000600052601160045260246000fd5b7f4e487b7100000000000000000000000000000000000000000000000000000000600052601260045260246000fd5b7f4e487b7100000000000000000000000000000000000000000000000000000000600052602260045260246000fd5b7f4e487b7100000000000000000000000000000000000000000000000000000000600052604160045260246000fd5b6000601f19601f8301169050919050565b6155b581615373565b81146155c057600080fd5b50565b6155cc81615385565b81146155d757600080fd5b50565b6155e381615391565b81146155ee57600080fd5b50565b6155fa8161539b565b811461560557600080fd5b50565b615611816153e7565b811461561c57600080fd5b5056fea2646970667358221220e18bdb5d17a2a59c1c7f847851cc215c7c05080e8a1d4bd6c7191171257beb4764736f6c63430008000033",
  "linkReferences": {},
  "deployedLinkReferences": {}
}